{
  "contractName": "battleship",
  "abi": [
    {
      "constant": true,
      "inputs": [
        {
          "name": "",
          "type": "address"
        }
      ],
      "name": "playerNames",
      "outputs": [
        {
          "name": "",
          "type": "string"
        }
      ],
      "payable": false,
      "stateMutability": "view",
      "type": "function"
    },
    {
      "constant": true,
      "inputs": [],
      "name": "minlen",
      "outputs": [
        {
          "name": "",
          "type": "uint8"
        }
      ],
      "payable": false,
      "stateMutability": "view",
      "type": "function"
    },
    {
      "constant": true,
      "inputs": [],
      "name": "maxlen",
      "outputs": [
        {
          "name": "",
          "type": "uint8"
        }
      ],
      "payable": false,
      "stateMutability": "view",
      "type": "function"
    },
    {
      "constant": true,
      "inputs": [
        {
          "name": "",
          "type": "bytes32"
        }
      ],
      "name": "playerNameExists",
      "outputs": [
        {
          "name": "",
          "type": "bool"
        }
      ],
      "payable": false,
      "stateMutability": "view",
      "type": "function"
    },
    {
      "constant": true,
      "inputs": [
        {
          "name": "",
          "type": "bytes32"
        }
      ],
      "name": "games",
      "outputs": [
        {
          "name": "player1",
          "type": "address"
        },
        {
          "name": "player2",
          "type": "address"
        },
        {
          "name": "player1Name",
          "type": "string"
        },
        {
          "name": "player2Name",
          "type": "string"
        },
        {
          "name": "currentPlayer",
          "type": "address"
        },
        {
          "name": "winner",
          "type": "address"
        },
        {
          "name": "gameState",
          "type": "uint8"
        },
        {
          "name": "pot",
          "type": "uint256"
        },
        {
          "name": "availablePot",
          "type": "uint256"
        }
      ],
      "payable": false,
      "stateMutability": "view",
      "type": "function"
    },
    {
      "anonymous": false,
      "inputs": [
        {
          "indexed": false,
          "name": "player",
          "type": "address"
        },
        {
          "indexed": false,
          "name": "name",
          "type": "string"
        }
      ],
      "name": "PlayerSetName",
      "type": "event"
    },
    {
      "anonymous": false,
      "inputs": [
        {
          "indexed": false,
          "name": "gameId",
          "type": "bytes32"
        },
        {
          "indexed": false,
          "name": "player1",
          "type": "address"
        },
        {
          "indexed": false,
          "name": "player1GoesFirst",
          "type": "bool"
        },
        {
          "indexed": false,
          "name": "pot",
          "type": "uint256"
        }
      ],
      "name": "GameInitialized",
      "type": "event"
    },
    {
      "anonymous": false,
      "inputs": [
        {
          "indexed": false,
          "name": "gameId",
          "type": "bytes32"
        },
        {
          "indexed": false,
          "name": "player2",
          "type": "address"
        }
      ],
      "name": "GameJoined",
      "type": "event"
    },
    {
      "anonymous": false,
      "inputs": [
        {
          "indexed": false,
          "name": "gameId",
          "type": "bytes32"
        },
        {
          "indexed": false,
          "name": "player",
          "type": "address"
        },
        {
          "indexed": false,
          "name": "startX",
          "type": "uint8"
        },
        {
          "indexed": false,
          "name": "endX",
          "type": "uint8"
        },
        {
          "indexed": false,
          "name": "startY",
          "type": "uint8"
        },
        {
          "indexed": false,
          "name": "endY",
          "type": "uint8"
        }
      ],
      "name": "ShipPlaced",
      "type": "event"
    },
    {
      "anonymous": false,
      "inputs": [
        {
          "indexed": false,
          "name": "gameId",
          "type": "bytes32"
        },
        {
          "indexed": false,
          "name": "newState",
          "type": "uint8"
        },
        {
          "indexed": false,
          "name": "newStateString",
          "type": "string"
        }
      ],
      "name": "StateChanged",
      "type": "event"
    },
    {
      "anonymous": false,
      "inputs": [
        {
          "indexed": false,
          "name": "gameId",
          "type": "bytes32"
        },
        {
          "indexed": false,
          "name": "currentPlayer",
          "type": "address"
        },
        {
          "indexed": false,
          "name": "x",
          "type": "uint8"
        },
        {
          "indexed": false,
          "name": "y",
          "type": "uint8"
        }
      ],
      "name": "MadeMove",
      "type": "event"
    },
    {
      "anonymous": false,
      "inputs": [
        {
          "indexed": false,
          "name": "gameId",
          "type": "bytes32"
        },
        {
          "indexed": false,
          "name": "currentPlayer",
          "type": "address"
        },
        {
          "indexed": false,
          "name": "x",
          "type": "uint8"
        },
        {
          "indexed": false,
          "name": "y",
          "type": "uint8"
        },
        {
          "indexed": false,
          "name": "pieceHit",
          "type": "int8"
        }
      ],
      "name": "HitBattleShip",
      "type": "event"
    },
    {
      "anonymous": false,
      "inputs": [
        {
          "indexed": false,
          "name": "gameId",
          "type": "bytes32"
        },
        {
          "indexed": false,
          "name": "player",
          "type": "address"
        }
      ],
      "name": "WonChallenged",
      "type": "event"
    },
    {
      "anonymous": false,
      "inputs": [
        {
          "indexed": false,
          "name": "gameId",
          "type": "bytes32"
        },
        {
          "indexed": false,
          "name": "winner",
          "type": "address"
        }
      ],
      "name": "GameEnded",
      "type": "event"
    },
    {
      "anonymous": false,
      "inputs": [
        {
          "indexed": false,
          "name": "gameId",
          "type": "bytes32"
        },
        {
          "indexed": false,
          "name": "player",
          "type": "address"
        }
      ],
      "name": "WinningsWithdrawn",
      "type": "event"
    },
    {
      "anonymous": false,
      "inputs": [
        {
          "indexed": false,
          "name": "gameId",
          "type": "bytes32"
        },
        {
          "indexed": false,
          "name": "player",
          "type": "address"
        },
        {
          "indexed": false,
          "name": "reason",
          "type": "string"
        }
      ],
      "name": "WithdrawFailed",
      "type": "event"
    },
    {
      "anonymous": false,
      "inputs": [
        {
          "indexed": false,
          "name": "gameId",
          "type": "bytes32"
        },
        {
          "indexed": false,
          "name": "currentState",
          "type": "uint8"
        },
        {
          "indexed": false,
          "name": "comparingState",
          "type": "uint8"
        },
        {
          "indexed": false,
          "name": "equal",
          "type": "bool"
        }
      ],
      "name": "IsStateCalled",
      "type": "event"
    },
    {
      "anonymous": false,
      "inputs": [
        {
          "indexed": false,
          "name": "gameId",
          "type": "bytes32"
        },
        {
          "indexed": false,
          "name": "player",
          "type": "address"
        }
      ],
      "name": "IsPlayerCalled",
      "type": "event"
    },
    {
      "anonymous": false,
      "inputs": [
        {
          "indexed": false,
          "name": "gameId",
          "type": "bytes32"
        },
        {
          "indexed": false,
          "name": "state",
          "type": "uint8"
        }
      ],
      "name": "LogCurrentState",
      "type": "event"
    },
    {
      "constant": true,
      "inputs": [
        {
          "name": "source",
          "type": "string"
        }
      ],
      "name": "stringToBytes32",
      "outputs": [
        {
          "name": "result",
          "type": "bytes32"
        }
      ],
      "payable": false,
      "stateMutability": "pure",
      "type": "function"
    },
    {
      "constant": false,
      "inputs": [
        {
          "name": "name",
          "type": "string"
        }
      ],
      "name": "setName",
      "outputs": [],
      "payable": false,
      "stateMutability": "nonpayable",
      "type": "function"
    },
    {
      "constant": true,
      "inputs": [
        {
          "name": "gameId",
          "type": "bytes32"
        }
      ],
      "name": "findPot",
      "outputs": [
        {
          "name": "",
          "type": "uint256"
        }
      ],
      "payable": false,
      "stateMutability": "view",
      "type": "function"
    },
    {
      "constant": false,
      "inputs": [
        {
          "name": "goFirst",
          "type": "bool"
        }
      ],
      "name": "newGame",
      "outputs": [
        {
          "name": "",
          "type": "bytes32"
        }
      ],
      "payable": true,
      "stateMutability": "payable",
      "type": "function"
    },
    {
      "constant": false,
      "inputs": [
        {
          "name": "gameId",
          "type": "bytes32"
        }
      ],
      "name": "joinGame",
      "outputs": [],
      "payable": true,
      "stateMutability": "payable",
      "type": "function"
    },
    {
      "constant": false,
      "inputs": [
        {
          "name": "gameId",
          "type": "bytes32"
        }
      ],
      "name": "showBoard",
      "outputs": [
        {
          "name": "board",
          "type": "int8[10][10]"
        }
      ],
      "payable": false,
      "stateMutability": "nonpayable",
      "type": "function"
    },
    {
      "constant": false,
      "inputs": [
        {
          "name": "gameId",
          "type": "bytes32"
        }
      ],
      "name": "showOtherPlayerBoard",
      "outputs": [
        {
          "name": "",
          "type": "int8[10][10]"
        }
      ],
      "payable": false,
      "stateMutability": "nonpayable",
      "type": "function"
    },
    {
      "constant": false,
      "inputs": [
        {
          "name": "gameId",
          "type": "bytes32"
        },
        {
          "name": "startX",
          "type": "uint8"
        },
        {
          "name": "endX",
          "type": "uint8"
        },
        {
          "name": "startY",
          "type": "uint8"
        },
        {
          "name": "endY",
          "type": "uint8"
        }
      ],
      "name": "placeShip",
      "outputs": [],
      "payable": false,
      "stateMutability": "nonpayable",
      "type": "function"
    },
    {
      "constant": false,
      "inputs": [
        {
          "name": "gameId",
          "type": "bytes32"
        }
      ],
      "name": "finishPlacing",
      "outputs": [],
      "payable": false,
      "stateMutability": "nonpayable",
      "type": "function"
    },
    {
      "constant": false,
      "inputs": [
        {
          "name": "gameId",
          "type": "bytes32"
        },
        {
          "name": "x",
          "type": "uint8"
        },
        {
          "name": "y",
          "type": "uint8"
        }
      ],
      "name": "makeMove",
      "outputs": [],
      "payable": false,
      "stateMutability": "nonpayable",
      "type": "function"
    },
    {
      "constant": false,
      "inputs": [
        {
          "name": "gameId",
          "type": "bytes32"
        }
      ],
      "name": "sayWon",
      "outputs": [],
      "payable": false,
      "stateMutability": "nonpayable",
      "type": "function"
    }
  ],
  "bytecode": "0x60806040526005600460006101000a81548160ff021916908360ff1602179055506002600460016101000a81548160ff021916908360ff16021790555034801561004857600080fd5b50613914806100586000396000f3fe6080604052600436106100f35760003560e01c8063b56e35ff1161008a578063cfb5192811610059578063cfb51928146105f8578063dadc21c3146106d4578063e4214c501461070f578063f579f8821461074a576100f3565b8063b56e35ff1461047e578063b8df519b146104af578063bf47476614610502578063c47f002714610530576100f3565b80634e206c8a116100c65780634e206c8a146102ef5780636ff412041461038957806399e8c427146103de578063a72fd2db1461044d576100f3565b80632b170aac146100f85780633ff332851461013c57806343b978b31461018b57806347825aa114610255575b600080fd5b6101266004803603602081101561010e57600080fd5b81019080803515159060200190929190505050610959565b6040518082815260200191505060405180910390f35b34801561014857600080fd5b506101756004803603602081101561015f57600080fd5b8101908080359060200190929190505050610ec1565b6040518082815260200191505060405180910390f35b34801561019757600080fd5b506101da600480360360208110156101ae57600080fd5b81019080803573ffffffffffffffffffffffffffffffffffffffff169060200190929190505050610ee1565b6040518080602001828103825283818151815260200191508051906020019080838360005b8381101561021a5780820151818401526020810190506101ff565b50505050905090810190601f1680156102475780820380516001836020036101000a031916815260200191505b509250505060405180910390f35b34801561026157600080fd5b5061028e6004803603602081101561027857600080fd5b8101908080359060200190929190505050610f91565b6040518082600a6000925b818410156102df5782846020020151600a60200280838360005b838110156102ce5780820151818401526020810190506102b3565b505050509050019260010192610299565b9250505091505060405180910390f35b3480156102fb57600080fd5b506103286004803603602081101561031257600080fd5b8101908080359060200190929190505050611464565b6040518082600a6000925b818410156103795782846020020151600a60200280838360005b8381101561036857808201518184015260208101905061034d565b505050509050019260010192610333565b9250505091505060405180910390f35b34801561039557600080fd5b506103dc600480360360608110156103ac57600080fd5b8101908080359060200190929190803560ff169060200190929190803560ff1690602001909291905050506116a1565b005b3480156103ea57600080fd5b5061044b600480360360a081101561040157600080fd5b8101908080359060200190929190803560ff169060200190929190803560ff169060200190929190803560ff169060200190929190803560ff169060200190929190505050611c2f565b005b34801561045957600080fd5b506104626122b8565b604051808260ff1660ff16815260200191505060405180910390f35b34801561048a57600080fd5b506104936122cb565b604051808260ff1660ff16815260200191505060405180910390f35b3480156104bb57600080fd5b506104e8600480360360208110156104d257600080fd5b81019080803590602001909291905050506122de565b604051808215151515815260200191505060405180910390f35b61052e6004803603602081101561051857600080fd5b81019080803590602001909291905050506122fe565b005b34801561053c57600080fd5b506105f66004803603602081101561055357600080fd5b810190808035906020019064010000000081111561057057600080fd5b82018360208201111561058257600080fd5b803590602001918460018302840111640100000000831117156105a457600080fd5b91908080601f016020809104026020016040519081016040528093929190818152602001838380828437600081840152601f19601f8201169050808301925050505050505091929192905050506128b6565b005b34801561060457600080fd5b506106be6004803603602081101561061b57600080fd5b810190808035906020019064010000000081111561063857600080fd5b82018360208201111561064a57600080fd5b8035906020019184600183028401116401000000008311171561066c57600080fd5b91908080601f016020809104026020016040519081016040528093929190818152602001838380828437600081840152601f19601f82011690508083019250505050505050919291929050505061297f565b6040518082815260200191505060405180910390f35b3480156106e057600080fd5b5061070d600480360360208110156106f757600080fd5b810190808035906020019092919050505061298d565b005b34801561071b57600080fd5b506107486004803603602081101561073257600080fd5b8101908080359060200190929190505050612de2565b005b34801561075657600080fd5b506107836004803603602081101561076d57600080fd5b81019080803590602001909291905050506131cc565b604051808a73ffffffffffffffffffffffffffffffffffffffff1673ffffffffffffffffffffffffffffffffffffffff1681526020018973ffffffffffffffffffffffffffffffffffffffff1673ffffffffffffffffffffffffffffffffffffffff16815260200180602001806020018873ffffffffffffffffffffffffffffffffffffffff1673ffffffffffffffffffffffffffffffffffffffff1681526020018773ffffffffffffffffffffffffffffffffffffffff1673ffffffffffffffffffffffffffffffffffffffff16815260200186600381111561086357fe5b60ff16815260200185815260200184815260200183810383528a818151815260200191508051906020019080838360005b838110156108af578082015181840152602081019050610894565b50505050905090810190601f1680156108dc5780820380516001836020036101000a031916815260200191505b50838103825289818151815260200191508051906020019080838360005b838110156109155780820151818401526020810190506108fa565b50505050905090810190601f1680156109425780820380516001836020036101000a031916815260200191505b509b50505050505050505050505060405180910390f35b60008060001b610a3e6000803373ffffffffffffffffffffffffffffffffffffffff1673ffffffffffffffffffffffffffffffffffffffff1681526020019081526020016000208054600181600116156101000203166002900480601f016020809104026020016040519081016040528092919081815260200182805460018160011615610100020316600290048015610a345780601f10610a0957610100808354040283529160200191610a34565b820191906000526020600020905b815481529060010190602001808311610a1757829003601f168201915b505050505061297f565b14610ebc5760003411610a5057600080fd5b60003343604051602001808373ffffffffffffffffffffffffffffffffffffffff1673ffffffffffffffffffffffffffffffffffffffff1660601b815260140182815260200192505050604051602081830303815290604052805190602001209050600360003373ffffffffffffffffffffffffffffffffffffffff1673ffffffffffffffffffffffffffffffffffffffff1681526020019081526020016000208190806001815401808255809150509060018203906000526020600020016000909192909190915055506040518061012001604052803373ffffffffffffffffffffffffffffffffffffffff168152602001600073ffffffffffffffffffffffffffffffffffffffff1681526020016000803373ffffffffffffffffffffffffffffffffffffffff1673ffffffffffffffffffffffffffffffffffffffff1681526020019081526020016000208054600181600116156101000203166002900480601f016020809104026020016040519081016040528092919081815260200182805460018160011615610100020316600290048015610c325780601f10610c0757610100808354040283529160200191610c32565b820191906000526020600020905b815481529060010190602001808311610c1557829003601f168201915b50505050508152602001604051806020016040528060008152508152602001600073ffffffffffffffffffffffffffffffffffffffff168152602001600073ffffffffffffffffffffffffffffffffffffffff16815260200160006003811115610c9857fe5b8152602001348152602001348152506002600083815260200190815260200160002060008201518160000160006101000a81548173ffffffffffffffffffffffffffffffffffffffff021916908373ffffffffffffffffffffffffffffffffffffffff16021790555060208201518160010160006101000a81548173ffffffffffffffffffffffffffffffffffffffff021916908373ffffffffffffffffffffffffffffffffffffffff1602179055506040820151816002019080519060200190610d649291906136eb565b506060820151816003019080519060200190610d819291906136eb565b5060808201518160040160006101000a81548173ffffffffffffffffffffffffffffffffffffffff021916908373ffffffffffffffffffffffffffffffffffffffff16021790555060a08201518160050160006101000a81548173ffffffffffffffffffffffffffffffffffffffff021916908373ffffffffffffffffffffffffffffffffffffffff16021790555060c08201518160050160146101000a81548160ff02191690836003811115610e3457fe5b021790555060e0820151816006015561010082015181600701559050508215610ead57336002600083815260200190815260200160002060040160006101000a81548173ffffffffffffffffffffffffffffffffffffffff021916908373ffffffffffffffffffffffffffffffffffffffff1602179055505b610eb781336133d7565b809150505b919050565b600060026000838152602001908152602001600020600601549050919050565b60006020528060005260406000206000915090508054600181600116156101000203166002900480601f016020809104026020016040519081016040528092919081815260200182805460018160011615610100020316600290048015610f895780601f10610f5e57610100808354040283529160200191610f89565b820191906000526020600020905b815481529060010190602001808311610f6c57829003601f168201915b505050505081565b610f9961376b565b817f30c126ddfd78b554590c8e0062ead3303c3d42fee51c3546f36f6daab83bc0a78133604051808381526020018273ffffffffffffffffffffffffffffffffffffffff1673ffffffffffffffffffffffffffffffffffffffff1681526020019250505060405180910390a16002600082815260200190815260200160002060000160009054906101000a900473ffffffffffffffffffffffffffffffffffffffff1673ffffffffffffffffffffffffffffffffffffffff163373ffffffffffffffffffffffffffffffffffffffff1614806110d657506002600082815260200190815260200160002060010160009054906101000a900473ffffffffffffffffffffffffffffffffffffffff1673ffffffffffffffffffffffffffffffffffffffff163373ffffffffffffffffffffffffffffffffffffffff16145b1561145e57600260038111156110e857fe5b6002600085815260200190815260200160002060050160149054906101000a900460ff16600381111561111757fe5b148061115b575060038081111561112a57fe5b6002600085815260200190815260200160002060050160149054906101000a900460ff16600381111561115957fe5b145b61116457600080fd5b600061117084336135c4565b905061117a61376b565b6002600086815260200190815260200160002060080160008373ffffffffffffffffffffffffffffffffffffffff1673ffffffffffffffffffffffffffffffffffffffff168152602001908152602001600020600a80602002604051908101604052809291906000905b8282101561126057838201600a806020026040519081016040528092919082600a801561124c576020028201916000905b82829054906101000a900460000b60000b815260200190600101906020826000010492830192600103820291508084116112155790505b5050505050815260200190600101906111e4565b50505050905060008090505b600a8160ff1610156113bf5760008090505b600a8110156113b1576000838360ff16600a811061129857fe5b602002015182600a81106112a857fe5b602002015160000b1380156112f55750600460009054906101000a900460ff1660ff16838360ff16600a81106112da57fe5b602002015182600a81106112ea57fe5b602002015160000b13155b1561134057600060058360ff16600a811061130c57fe5b0182600a811061131857fe5b602091828204019190066101000a81548160ff021916908360000b60ff1602179055506113a4565b828260ff16600a811061134f57fe5b602002015181600a811061135f57fe5b602002015160058360ff16600a811061137457fe5b0182600a811061138057fe5b602091828204019190066101000a81548160ff021916908360000b60ff1602179055505b808060010191505061127e565b50808060010191505061126c565b506005600a80602002604051908101604052809291906000905b8282101561145557838201600a806020026040519081016040528092919082600a8015611441576020028201916000905b82829054906101000a900460000b60000b8152602001906001019060208260000104928301926001038202915080841161140a5790505b5050505050815260200190600101906113d9565b50505050935050505b50919050565b61146c61376b565b817f30c126ddfd78b554590c8e0062ead3303c3d42fee51c3546f36f6daab83bc0a78133604051808381526020018273ffffffffffffffffffffffffffffffffffffffff1673ffffffffffffffffffffffffffffffffffffffff1681526020019250505060405180910390a16002600082815260200190815260200160002060000160009054906101000a900473ffffffffffffffffffffffffffffffffffffffff1673ffffffffffffffffffffffffffffffffffffffff163373ffffffffffffffffffffffffffffffffffffffff1614806115a957506002600082815260200190815260200160002060010160009054906101000a900473ffffffffffffffffffffffffffffffffffffffff1673ffffffffffffffffffffffffffffffffffffffff163373ffffffffffffffffffffffffffffffffffffffff16145b1561169b576002600084815260200190815260200160002060080160003373ffffffffffffffffffffffffffffffffffffffff1673ffffffffffffffffffffffffffffffffffffffff168152602001908152602001600020600a80602002604051908101604052809291906000905b8282101561169457838201600a806020026040519081016040528092919082600a8015611680576020028201916000905b82829054906101000a900460000b60000b815260200190600101906020826000010492830192600103820291508084116116495790505b505050505081526020019060010190611618565b5050505091505b50919050565b8260027fb50b8c7887cd42a9ec052cf6f08c93c0987703edc4bb85236958ac3effb6aacd82826002600086815260200190815260200160002060050160149054906101000a900460ff166002600087815260200190815260200160002060050160149054906101000a900460ff16600381111561171a57fe5b85600381111561172657fe5b146040518085815260200184600381111561173d57fe5b60ff16815260200183600381111561175157fe5b60ff1681526020018215151515815260200194505050505060405180910390a16002600083815260200190815260200160002060050160149054906101000a900460ff1660038111156117a057fe5b8160038111156117ac57fe5b1415611c2857846002600082815260200190815260200160002060040160009054906101000a900473ffffffffffffffffffffffffffffffffffffffff1673ffffffffffffffffffffffffffffffffffffffff163373ffffffffffffffffffffffffffffffffffffffff161415611c2657600061182987336135c4565b905060006002600089815260200190815260200160002060080160008373ffffffffffffffffffffffffffffffffffffffff1673ffffffffffffffffffffffffffffffffffffffff1681526020019081526020016000208760ff16600a811061188e57fe5b018660ff16600a811061189d57fe5b602091828204019190069054906101000a900460000b60000b12156118c157600080fd5b60016002600089815260200190815260200160002060080160008373ffffffffffffffffffffffffffffffffffffffff1673ffffffffffffffffffffffffffffffffffffffff1681526020019081526020016000208760ff16600a811061192457fe5b018660ff16600a811061193357fe5b602091828204019190069054906101000a900460000b60000b121580156119f45750600460009054906101000a900460ff1660ff166002600089815260200190815260200160002060080160008373ffffffffffffffffffffffffffffffffffffffff1673ffffffffffffffffffffffffffffffffffffffff1681526020019081526020016000208760ff16600a81106119c957fe5b018660ff16600a81106119d857fe5b602091828204019190069054906101000a900460000b60000b13155b15611b39576002600088815260200190815260200160002060080160008273ffffffffffffffffffffffffffffffffffffffff1673ffffffffffffffffffffffffffffffffffffffff1681526020019081526020016000208660ff16600a8110611a5a57fe5b018560ff16600a8110611a6957fe5b602091828204019190069054906101000a900460000b7fffffffffffffffffffffffffffffffffffffffffffffffffffffffffffffffff026002600089815260200190815260200160002060080160008373ffffffffffffffffffffffffffffffffffffffff1673ffffffffffffffffffffffffffffffffffffffff1681526020019081526020016000208760ff16600a8110611b0257fe5b018660ff16600a8110611b1157fe5b602091828204019190066101000a81548160ff021916908360000b60ff160217905550611bcf565b60646002600089815260200190815260200160002060080160008373ffffffffffffffffffffffffffffffffffffffff1673ffffffffffffffffffffffffffffffffffffffff1681526020019081526020016000208760ff16600a8110611b9c57fe5b018660ff16600a8110611bab57fe5b602091828204019190066101000a81548160ff021916908360000b60ff1602179055505b806002600089815260200190815260200160002060040160006101000a81548173ffffffffffffffffffffffffffffffffffffffff021916908373ffffffffffffffffffffffffffffffffffffffff160217905550505b505b5050505050565b847f30c126ddfd78b554590c8e0062ead3303c3d42fee51c3546f36f6daab83bc0a78133604051808381526020018273ffffffffffffffffffffffffffffffffffffffff1673ffffffffffffffffffffffffffffffffffffffff1681526020019250505060405180910390a16002600082815260200190815260200160002060000160009054906101000a900473ffffffffffffffffffffffffffffffffffffffff1673ffffffffffffffffffffffffffffffffffffffff163373ffffffffffffffffffffffffffffffffffffffff161480611d6c57506002600082815260200190815260200160002060010160009054906101000a900473ffffffffffffffffffffffffffffffffffffffff1673ffffffffffffffffffffffffffffffffffffffff163373ffffffffffffffffffffffffffffffffffffffff16145b156122b0578560017fb50b8c7887cd42a9ec052cf6f08c93c0987703edc4bb85236958ac3effb6aacd82826002600086815260200190815260200160002060050160149054906101000a900460ff166002600087815260200190815260200160002060050160149054906101000a900460ff166003811115611dea57fe5b856003811115611df657fe5b1460405180858152602001846003811115611e0d57fe5b60ff168152602001836003811115611e2157fe5b60ff1681526020018215151515815260200194505050505060405180910390a16002600083815260200190815260200160002060050160149054906101000a900460ff166003811115611e7057fe5b816003811115611e7c57fe5b14156122ad578560ff168760ff161480611e9b57508360ff168560ff16145b611ea457600080fd5b8560ff168760ff161080611ebd57508360ff168560ff16105b611ec657600080fd5b600a8760ff16108015611edd575060008760ff1610155b8015611eec5750600a8660ff16105b8015611efc575060008660ff1610155b8015611f0b5750600a8560ff16105b8015611f1b575060008560ff1610155b8015611f2a5750600a8460ff16105b8015611f3a575060008460ff1610155b611f4357600080fd5b60008790505b8660ff168160ff16116120195760008690505b8560ff168160ff161161200b576000600260008c815260200190815260200160002060080160003373ffffffffffffffffffffffffffffffffffffffff1673ffffffffffffffffffffffffffffffffffffffff1681526020019081526020016000208360ff16600a8110611fcc57fe5b018260ff16600a8110611fdb57fe5b602091828204019190069054906101000a900460000b60000b14611ffe57600080fd5b8080600101915050611f5c565b508080600101915050611f49565b506000600190508660ff168860ff1614156120485761203f8560ff168760ff16036136ae565b8101905061206d565b8460ff168660ff16141561206c576120678760ff168960ff16036136ae565b810190505b5b600460009054906101000a900460ff1660ff168160ff16111580156120a75750600460019054906101000a900460ff1660ff168160ff1610155b6120b057600080fd5b600260008a815260200190815260200160002060090160003373ffffffffffffffffffffffffffffffffffffffff1673ffffffffffffffffffffffffffffffffffffffff168152602001908152602001600020600460019054906101000a900460ff16820360ff166004811061212257fe5b602091828204019190069054906101000a900460ff161561214257600080fd5b6001600260008b815260200190815260200160002060090160003373ffffffffffffffffffffffffffffffffffffffff1673ffffffffffffffffffffffffffffffffffffffff168152602001908152602001600020600460019054906101000a900460ff16830360ff16600481106121b657fe5b602091828204019190066101000a81548160ff02191690831515021790555060008890505b8760ff168160ff16116122aa5760008790505b8660ff168160ff161161229c5782600260008d815260200190815260200160002060080160003373ffffffffffffffffffffffffffffffffffffffff1673ffffffffffffffffffffffffffffffffffffffff1681526020019081526020016000208360ff16600a811061225d57fe5b018260ff16600a811061226c57fe5b602091828204019190066101000a81548160ff021916908360000b60ff16021790555080806001019150506121ee565b5080806001019150506121db565b50505b50505b505050505050565b600460019054906101000a900460ff1681565b600460009054906101000a900460ff1681565b60016020528060005260406000206000915054906101000a900460ff1681565b6000801b6123e16000803373ffffffffffffffffffffffffffffffffffffffff1673ffffffffffffffffffffffffffffffffffffffff1681526020019081526020016000208054600181600116156101000203166002900480601f0160208091040260200160405190810160405280929190818152602001828054600181600116156101000203166002900480156123d75780601f106123ac576101008083540402835291602001916123d7565b820191906000526020600020905b8154815290600101906020018083116123ba57829003601f168201915b505050505061297f565b146128b3578060007fb50b8c7887cd42a9ec052cf6f08c93c0987703edc4bb85236958ac3effb6aacd82826002600086815260200190815260200160002060050160149054906101000a900460ff166002600087815260200190815260200160002060050160149054906101000a900460ff16600381111561245f57fe5b85600381111561246b57fe5b146040518085815260200184600381111561248257fe5b60ff16815260200183600381111561249657fe5b60ff1681526020018215151515815260200194505050505060405180910390a16002600083815260200190815260200160002060050160149054906101000a900460ff1660038111156124e557fe5b8160038111156124f157fe5b14156128b057600073ffffffffffffffffffffffffffffffffffffffff166002600085815260200190815260200160002060010160009054906101000a900473ffffffffffffffffffffffffffffffffffffffff1673ffffffffffffffffffffffffffffffffffffffff161461256657600080fd5b6002600084815260200190815260200160002060060154341461258857600080fd5b336002600085815260200190815260200160002060010160006101000a81548173ffffffffffffffffffffffffffffffffffffffff021916908373ffffffffffffffffffffffffffffffffffffffff1602179055506000803373ffffffffffffffffffffffffffffffffffffffff1673ffffffffffffffffffffffffffffffffffffffff168152602001908152602001600020600260008581526020019081526020016000206003019080546001816001161561010002031660029004612650929190613799565b50600360003373ffffffffffffffffffffffffffffffffffffffff1673ffffffffffffffffffffffffffffffffffffffff168152602001908152602001600020839080600181540180825580915050906001820390600052602060002001600090919290919091505550600073ffffffffffffffffffffffffffffffffffffffff166002600085815260200190815260200160002060040160009054906101000a900473ffffffffffffffffffffffffffffffffffffffff1673ffffffffffffffffffffffffffffffffffffffff16141561277b57336002600085815260200190815260200160002060040160006101000a81548173ffffffffffffffffffffffffffffffffffffffff021916908373ffffffffffffffffffffffffffffffffffffffff1602179055505b61278583336133d7565b7f719256502a190a7b4efbca7f56497055f1dccc51e2dca31d166dd41353fa21c28333604051808381526020018273ffffffffffffffffffffffffffffffffffffffff1673ffffffffffffffffffffffffffffffffffffffff1681526020019250505060405180910390a160016002600085815260200190815260200160002060050160146101000a81548160ff0219169083600381111561282357fe5b02179055507fb4c24ba44adc7dd6a2c224259edcf26e548b1048e4b8193ee5c753d4feb33bb18360016040518083815260200182600381111561286257fe5b60ff16815260200180602001828103825260098152602001807f53657474696e6755700000000000000000000000000000000000000000000000815250602001935050505060405180910390a15b50505b50565b601e815111156128c557600080fd5b60006128d08261297f565b90506001600082815260200190815260200160002060009054906101000a900460ff16156128fd57600080fd5b816000803373ffffffffffffffffffffffffffffffffffffffff1673ffffffffffffffffffffffffffffffffffffffff168152602001908152602001600020908051906020019061294f929190613820565b50600180600083815260200190815260200160002060006101000a81548160ff0219169083151502179055505050565b600060208201519050919050565b807f30c126ddfd78b554590c8e0062ead3303c3d42fee51c3546f36f6daab83bc0a78133604051808381526020018273ffffffffffffffffffffffffffffffffffffffff1673ffffffffffffffffffffffffffffffffffffffff1681526020019250505060405180910390a16002600082815260200190815260200160002060000160009054906101000a900473ffffffffffffffffffffffffffffffffffffffff1673ffffffffffffffffffffffffffffffffffffffff163373ffffffffffffffffffffffffffffffffffffffff161480612aca57506002600082815260200190815260200160002060010160009054906101000a900473ffffffffffffffffffffffffffffffffffffffff1673ffffffffffffffffffffffffffffffffffffffff163373ffffffffffffffffffffffffffffffffffffffff16145b15612dde578160017fb50b8c7887cd42a9ec052cf6f08c93c0987703edc4bb85236958ac3effb6aacd82826002600086815260200190815260200160002060050160149054906101000a900460ff166002600087815260200190815260200160002060050160149054906101000a900460ff166003811115612b4857fe5b856003811115612b5457fe5b1460405180858152602001846003811115612b6b57fe5b60ff168152602001836003811115612b7f57fe5b60ff1681526020018215151515815260200194505050505060405180910390a16002600083815260200190815260200160002060050160149054906101000a900460ff166003811115612bce57fe5b816003811115612bda57fe5b1415612ddb5760006001905060008090505b600460019054906101000a900460ff16600460009054906101000a900460ff160360ff168160ff1611612d97576002600087815260200190815260200160002060090160006002600089815260200190815260200160002060000160009054906101000a900473ffffffffffffffffffffffffffffffffffffffff1673ffffffffffffffffffffffffffffffffffffffff1673ffffffffffffffffffffffffffffffffffffffff1681526020019081526020016000208160ff1660048110612cb057fe5b602091828204019190069054906101000a900460ff161580612d7c57506002600087815260200190815260200160002060090160006002600089815260200190815260200160002060010160009054906101000a900473ffffffffffffffffffffffffffffffffffffffff1673ffffffffffffffffffffffffffffffffffffffff1673ffffffffffffffffffffffffffffffffffffffff1681526020019081526020016000208160ff1660048110612d6457fe5b602091828204019190069054906101000a900460ff16155b15612d8a5760009150612d97565b8080600101915050612bec565b5080612da257600080fd5b600280600087815260200190815260200160002060050160146101000a81548160ff02191690836003811115612dd457fe5b0217905550505b50505b5050565b807f30c126ddfd78b554590c8e0062ead3303c3d42fee51c3546f36f6daab83bc0a78133604051808381526020018273ffffffffffffffffffffffffffffffffffffffff1673ffffffffffffffffffffffffffffffffffffffff1681526020019250505060405180910390a16002600082815260200190815260200160002060000160009054906101000a900473ffffffffffffffffffffffffffffffffffffffff1673ffffffffffffffffffffffffffffffffffffffff163373ffffffffffffffffffffffffffffffffffffffff161480612f1f57506002600082815260200190815260200160002060010160009054906101000a900473ffffffffffffffffffffffffffffffffffffffff1673ffffffffffffffffffffffffffffffffffffffff163373ffffffffffffffffffffffffffffffffffffffff16145b156131c8578160027fb50b8c7887cd42a9ec052cf6f08c93c0987703edc4bb85236958ac3effb6aacd82826002600086815260200190815260200160002060050160149054906101000a900460ff166002600087815260200190815260200160002060050160149054906101000a900460ff166003811115612f9d57fe5b856003811115612fa957fe5b1460405180858152602001846003811115612fc057fe5b60ff168152602001836003811115612fd457fe5b60ff1681526020018215151515815260200194505050505060405180910390a16002600083815260200190815260200160002060050160149054906101000a900460ff16600381111561302357fe5b81600381111561302f57fe5b14156131c557600061304185336135c4565b90506000600e905060006002600088815260200190815260200160002060080160008473ffffffffffffffffffffffffffffffffffffffff1673ffffffffffffffffffffffffffffffffffffffff1681526020019081526020016000209050600080905060008090505b600a8160ff1610156131245760008090505b600a811015613116576000848360ff16600a81106130d757fe5b0182600a81106130e357fe5b602091828204019190069054906101000a900460000b60000b1215613109576001830192505b80806001019150506130bd565b5080806001019150506130ab565b508260ff168160ff16106131c0576003600260008a815260200190815260200160002060050160146101000a81548160ff0219169083600381111561316557fe5b021790555033600260008a815260200190815260200160002060050160006101000a81548173ffffffffffffffffffffffffffffffffffffffff021916908373ffffffffffffffffffffffffffffffffffffffff1602179055505b505050505b50505b5050565b60026020528060005260406000206000915090508060000160009054906101000a900473ffffffffffffffffffffffffffffffffffffffff16908060010160009054906101000a900473ffffffffffffffffffffffffffffffffffffffff1690806002018054600181600116156101000203166002900480601f0160208091040260200160405190810160405280929190818152602001828054600181600116156101000203166002900480156132c45780601f10613299576101008083540402835291602001916132c4565b820191906000526020600020905b8154815290600101906020018083116132a757829003601f168201915b505050505090806003018054600181600116156101000203166002900480601f0160208091040260200160405190810160405280929190818152602001828054600181600116156101000203166002900480156133625780601f1061333757610100808354040283529160200191613362565b820191906000526020600020905b81548152906001019060200180831161334557829003601f168201915b5050505050908060040160009054906101000a900473ffffffffffffffffffffffffffffffffffffffff16908060050160009054906101000a900473ffffffffffffffffffffffffffffffffffffffff16908060050160149054906101000a900460ff16908060060154908060070154905089565b8160007fb50b8c7887cd42a9ec052cf6f08c93c0987703edc4bb85236958ac3effb6aacd82826002600086815260200190815260200160002060050160149054906101000a900460ff166002600087815260200190815260200160002060050160149054906101000a900460ff16600381111561345057fe5b85600381111561345c57fe5b146040518085815260200184600381111561347357fe5b60ff16815260200183600381111561348757fe5b60ff1681526020018215151515815260200194505050505060405180910390a16002600083815260200190815260200160002060050160149054906101000a900460ff1660038111156134d657fe5b8160038111156134e257fe5b14156135be5760008090505b600a8160ff1610156135bc5760008090505b600a8160ff1610156135ae5760006002600088815260200190815260200160002060080160008773ffffffffffffffffffffffffffffffffffffffff1673ffffffffffffffffffffffffffffffffffffffff1681526020019081526020016000208360ff16600a811061356f57fe5b018260ff16600a811061357e57fe5b602091828204019190066101000a81548160ff021916908360000b60ff1602179055508080600101915050613500565b5080806001019150506134ee565b505b50505050565b60006002600084815260200190815260200160002060000160009054906101000a900473ffffffffffffffffffffffffffffffffffffffff1673ffffffffffffffffffffffffffffffffffffffff168273ffffffffffffffffffffffffffffffffffffffff16141561366e576002600084815260200190815260200160002060010160009054906101000a900473ffffffffffffffffffffffffffffffffffffffff1690506136a8565b6002600084815260200190815260200160002060000160009054906101000a900473ffffffffffffffffffffffffffffffffffffffff1690505b92915050565b6000808212156136e257817fffffffffffffffffffffffffffffffffffffffffffffffffffffffffffffffff0290506136e6565b8190505b919050565b828054600181600116156101000203166002900490600052602060002090601f016020900481019282601f1061372c57805160ff191683800117855561375a565b8280016001018555821561375a579182015b8281111561375957825182559160200191906001019061373e565b5b50905061376791906138a0565b5090565b60405180610c800160405280600a905b6137836138c5565b81526020019060019003908161377b5790505090565b828054600181600116156101000203166002900490600052602060002090601f016020900481019282601f106137d2578054855561380f565b8280016001018555821561380f57600052602060002091601f016020900482015b8281111561380e5782548255916001019190600101906137f3565b5b50905061381c91906138a0565b5090565b828054600181600116156101000203166002900490600052602060002090601f016020900481019282601f1061386157805160ff191683800117855561388f565b8280016001018555821561388f579182015b8281111561388e578251825591602001919060010190613873565b5b50905061389c91906138a0565b5090565b6138c291905b808211156138be5760008160009055506001016138a6565b5090565b90565b604051806101400160405280600a9060208202803883398082019150509050509056fea165627a7a72305820665d402265cf562fad8b4e52361f453bb6c7f29f123b049e465d05169f1005830029",
  "source": "pragma solidity >= 0.4.2;\n\ncontract battleship {\n\n    enum GameState { Created, SettingUp, Playing, Finished }\n\n    struct Game {\n        address payable player1;\n        address payable player2;\n        string player1Name;\n        string player2Name;\n        address currentPlayer;\n        address payable winner;\n        GameState gameState;\n        uint pot;\n        uint availablePot;\n        mapping(address => int8[10][10]) playerGrids;\n        mapping(address => bool[4]) playerShips;\n    }\n\n    mapping(address => string) public playerNames;\n    mapping(bytes32 => bool) public playerNameExists;\n    mapping(bytes32 => Game) public games;\n    mapping(address => bytes32[]) playerGames;\n\n    uint8 public maxlen = 5;\n    uint8 public minlen = 2;\n\n    int8[10][10] otherPlayerBoard;\n\n    event PlayerSetName(address player, string name);\n    event GameInitialized(bytes32 gameId, address player1, bool player1GoesFirst, uint pot);\n    event GameJoined(bytes32 gameId, address player2);\n    event ShipPlaced(bytes32 gameId, address player, uint8 startX, uint8 endX, uint8 startY, uint8 endY);\n    event StateChanged(bytes32 gameId, GameState newState, string newStateString);\n\n    event MadeMove(bytes32 gameId, address currentPlayer, uint8 x, uint8 y);\n    event HitBattleShip(bytes32 gameId, address currentPlayer, uint8 x, uint8 y, int8 pieceHit);\n    event WonChallenged(bytes32 gameId, address player);\n    event GameEnded(bytes32 gameId, address winner);\n    \n    event WinningsWithdrawn(bytes32 gameId, address player);\n    event WithdrawFailed(bytes32 gameId, address player, string reason);\n\n    event IsStateCalled(bytes32 gameId, GameState currentState, GameState comparingState, bool equal);\n    event IsPlayerCalled(bytes32 gameId, address player);\n    event LogCurrentState(bytes32 gameId, GameState state);\n\n    function stringToBytes32(string memory source) pure public returns (bytes32 result) {\n        assembly {\n            result := mload(add(source, 32))\n        }\n    }\n\n    modifier hasName() {\n        if(stringToBytes32(playerNames[msg.sender]) != bytes32(0x0)) _;\n    }\n\n    modifier isPlayer(bytes32 gameId) {\n        emit IsPlayerCalled(gameId,msg.sender);\n\n        if(msg.sender == games[gameId].player1 || msg.sender == games[gameId].player2) _;\n    }\n\n    modifier isCurrentPlayer(bytes32 gameId) {\n        if(msg.sender == games[gameId].currentPlayer) _;\n    }\n\n    modifier isState(bytes32 gameId, GameState state){\n        emit IsStateCalled(gameId,state, games[gameId].gameState, state == games[gameId].gameState);\n        if(state == games[gameId].gameState) _;\n    }\n\n\n    function abs(int number) internal pure returns(uint unumber) {\n        if(number < 0) return uint(-1 * number);\n        return uint(number);\n    }\n    function initialiseBoard(bytes32 gameId, address player) isState(gameId, GameState.Created) internal {\n        for(uint8 i = 0; i < 10; i++) {\n            for(uint8 j = 0; j < 10; j++) {\n                games[gameId].playerGrids[player][i][j] = 0;\n            }\n        }\n    }\n    \n    function findOtherPlayer(bytes32 gameId,address player) internal view returns(address) {\n        if(player == games[gameId].player1) return games[gameId].player2;\n        return games[gameId].player1;\n    }\n\n    function setName(string memory name ) public{\n        require(bytes(name).length <= 30);\n        bytes32 bytesname = stringToBytes32(name);\n        require(!playerNameExists[bytesname]);\n        playerNames[msg.sender] = name;\n        playerNameExists[bytesname] = true;\n    }\n\n    function findPot(bytes32 gameId) view public returns(uint){\n        return games[gameId].pot;\n    }\n\n    function newGame(bool goFirst) hasName public payable returns(bytes32){\n        require(msg.value > 0);\n        // bytes32 gameId = keccak256(msg.sender, block.number);\n        bytes32 gameId = keccak256(abi.encodePacked(msg.sender, block.number));\n        playerGames[msg.sender].push(gameId);\n        games[gameId] = Game(\n            msg.sender, // address player1;\n            address(0), // address player2;\n            playerNames[msg.sender], //     string player1Name;\n            \"\",  // string player2Name;\n            address(0), // address currentPlayer;\n            address(0), // address winner;\n            GameState.Created, // GameState gameState;\n            msg.value,    // uint pot;\n            msg.value    // uint availablePot;\n        );\n        if(goFirst){\n            games[gameId].currentPlayer = msg.sender;\n        }\n        initialiseBoard(gameId,msg.sender);\n        return gameId;\n    }\n\n    function joinGame(bytes32 gameId) hasName public isState(gameId, GameState.Created) payable {\n        require(games[gameId].player2 == address(0));\n        require(msg.value == games[gameId].pot);\n        games[gameId].player2 = msg.sender;\n        games[gameId].player2Name = playerNames[msg.sender];\n        playerGames[msg.sender].push(gameId);\n        if(games[gameId].currentPlayer == address(0)){\n            games[gameId].currentPlayer = msg.sender;\n        }\n        initialiseBoard(gameId,msg.sender);\n        emit GameJoined(gameId,msg.sender);\n        games[gameId].gameState = GameState.SettingUp;\n        emit StateChanged(gameId,GameState.SettingUp,\"SettingUp\");\n    }\n\n    function showBoard(bytes32 gameId) isPlayer(gameId) public returns(int8[10][10] memory board) {\n        return games[gameId].playerGrids[msg.sender];\n    }\n\n    function showOtherPlayerBoard(bytes32 gameId) isPlayer(gameId) public returns(int8[10][10]  memory){\n        require(games[gameId].gameState == GameState.Playing || games[gameId].gameState == GameState.Finished);\n        address otherPlayer = findOtherPlayer(gameId, msg.sender);\n        int8[10][10] memory otherGrid = games[gameId].playerGrids[otherPlayer];\n        for(uint8 i = 0; i < 10; i++) \n        {\n            for(uint j = 0; j < 10; j++) \n            {\n                if(otherGrid[i][j] > 0 && otherGrid[i][j] <= int(maxlen))\n                    otherPlayerBoard[i][j] = 0;\n                else\n                    otherPlayerBoard[i][j] = otherGrid[i][j];\n            }\n        }\n        return otherPlayerBoard;\n    }\n\n    function placeShip(bytes32 gameId, uint8 startX, uint8 endX, uint8 startY, uint8 endY) isPlayer(gameId) public isState(gameId,GameState.SettingUp) {\n        \n        require(startX == endX || startY == endY);\n        require(startX < endX || startY < endY);\n        require(startX  < 10 && startX  >= 0 &&\n                endX    < 10 && endX    >= 0 &&\n                startY  < 10 && startY  >= 0 &&\n                endY    < 10 && endY    >= 0);\n        for(uint8 x = startX; x <= endX; x++) \n        {\n            for(uint8 y = startY; y <= endY; y++) \n            {\n                require(games[gameId].playerGrids[msg.sender][x][y] == 0);\n            }   \n        }\n        uint8 boatLength = 1;\n        if(startX == endX) \n        {\n            boatLength += uint8(abs(int(startY)-int(endY)));\n        }\n        else if(startY == endY) \n        {\n            boatLength += uint8(abs(int(startX)-int(endX)));\n        }\n\n        require(boatLength <= maxlen && boatLength >= minlen);\n        require(!(games[gameId].playerShips[msg.sender][boatLength-minlen]));\n\n        games[gameId].playerShips[msg.sender][boatLength - minlen] = true;\n\n        for(uint8 x = startX; x <= endX; x++) \n        {\n            for( uint8 y = startY; y <= endY; y++) \n            {\n                games[gameId].playerGrids[msg.sender][x][y] = int8(boatLength);\n            }   \n        }\n    }\n\n    function finishPlacing(bytes32 gameId) isPlayer(gameId) public isState(gameId,GameState.SettingUp) {\n        bool ready = true;\n        for(uint8 i = 0; i <= maxlen - minlen; i++) \n        {\n            if(!games[gameId].playerShips[games[gameId].player1][i] || !games[gameId].playerShips[games[gameId].player2][i]) \n            {\n                ready = false;\n                break;\n            }\n        }\n        require(ready);\n        games[gameId].gameState = GameState.Playing;\n    }\n\n    function makeMove(bytes32 gameId, uint8 x, uint8 y) public isState(gameId,GameState.Playing) isCurrentPlayer(gameId) {\n        address otherPlayer = findOtherPlayer(gameId, msg.sender);\n        require(games[gameId].playerGrids[otherPlayer][x][y] >= 0);\n        if(games[gameId].playerGrids[otherPlayer][x][y] >= 1 && games[gameId].playerGrids[otherPlayer][x][y] <= int(maxlen))\n        {\n            games[gameId].playerGrids[otherPlayer][x][y] = -1 * games[gameId].playerGrids[otherPlayer][x][y];\n        }\n        else\n        {\n            games[gameId].playerGrids[otherPlayer][x][y] = 100;\n        }\n\n        games[gameId].currentPlayer = otherPlayer;\n    }\n\n    function sayWon(bytes32 gameId) isPlayer(gameId) isState(gameId,GameState.Playing) public\n    {\n        address otherPlayer = findOtherPlayer(gameId,msg.sender);\n        // uint8 requiredToWin = 0;\n        uint8 requiredToWin = 14;\n        // for(uint8 i = minlen; i <= maxlen; i++){\n        //     requiredToWin += i;\n        // }\n        int8[10][10] storage otherPlayerGrid = games[gameId].playerGrids[otherPlayer];\n        uint8 numberHit = 0;\n        for( uint8 i = 0;  i < 10; i++) {\n            for(uint j = 0;  j < 10; j++) {\n                if(otherPlayerGrid[i][j] < 0)\n                {\n                    numberHit += 1;\n                }\n            }\n        }\n        if(numberHit >= requiredToWin)\n        {\n            games[gameId].gameState = GameState.Finished;\n            games[gameId].winner = msg.sender;\n        }\n    }\n\n\n    function withdraw(bytes32 gameId) private{\n        // if(games[gameId].gameState != GameState.Finished)\n        // {\n        //     // WithdrawFailed(gameId,msg.sender,'This game isnt over yet');\n        // }\n        require(games[gameId].gameState == GameState.Finished);\n        uint amount = games[gameId].availablePot;\n        // if(amount > 0){\n        if(msg.sender == games[gameId].winner){\n            games[gameId].availablePot = 0;\n            msg.sender.transfer(amount);\n            emit WinningsWithdrawn(gameId, msg.sender);\n        }\n        else\n        {\n            // WithdrawFailed(gameId,msg.sender,'This player hasnt won the game');\n        }\n        // }\n        // else\n        // {\n        //     WithdrawFailed(gameId,msg.sender,'No more funds in the contract for this game');\n        // }\n    }\n\n    // function () public {\n    //     revert(\"accidental sending\"); // Prevents accidental sending of ether\n    // }\n\n}\n",
  "sourcePath": "/home/akshay/Documents/Course docs/Blockchain/assignments/Battleship-dAPP/contracts/battleship.sol",
  "compiler": {
    "name": "solc",
    "version": "0.5.8+commit.23d335f2.Emscripten.clang"
  },
  "schemaVersion": "3.0.15",
  "updatedAt": "2019-11-09T10:43:23.080Z",
  "devdoc": {
    "methods": {}
  },
  "userdoc": {
    "methods": {}
  }
}