{
  "contractName": "battleship",
  "abi": [
    {
      "constant": true,
      "inputs": [
        {
          "name": "",
          "type": "address"
        },
        {
          "name": "",
          "type": "uint256"
        }
      ],
      "name": "playerGames",
      "outputs": [
        {
          "name": "",
          "type": "bytes32"
        }
      ],
      "payable": false,
      "stateMutability": "view",
      "type": "function"
    },
    {
      "constant": true,
      "inputs": [
        {
          "name": "",
          "type": "address"
        }
      ],
      "name": "playerNames",
      "outputs": [
        {
          "name": "",
          "type": "string"
        }
      ],
      "payable": false,
      "stateMutability": "view",
      "type": "function"
    },
    {
      "constant": true,
      "inputs": [],
      "name": "minlen",
      "outputs": [
        {
          "name": "",
          "type": "uint8"
        }
      ],
      "payable": false,
      "stateMutability": "view",
      "type": "function"
    },
    {
      "constant": true,
      "inputs": [],
      "name": "maxlen",
      "outputs": [
        {
          "name": "",
          "type": "uint8"
        }
      ],
      "payable": false,
      "stateMutability": "view",
      "type": "function"
    },
    {
      "constant": true,
      "inputs": [
        {
          "name": "",
          "type": "bytes32"
        }
      ],
      "name": "playerNameExists",
      "outputs": [
        {
          "name": "",
          "type": "bool"
        }
      ],
      "payable": false,
      "stateMutability": "view",
      "type": "function"
    },
    {
      "constant": true,
      "inputs": [
        {
          "name": "",
          "type": "bytes32"
        }
      ],
      "name": "games",
      "outputs": [
        {
          "name": "player1",
          "type": "address"
        },
        {
          "name": "player2",
          "type": "address"
        },
        {
          "name": "player1Name",
          "type": "string"
        },
        {
          "name": "player2Name",
          "type": "string"
        },
        {
          "name": "currentPlayer",
          "type": "address"
        },
        {
          "name": "winner",
          "type": "address"
        },
        {
          "name": "gameState",
          "type": "uint8"
        },
        {
          "name": "pot",
          "type": "uint256"
        },
        {
          "name": "availablePot",
          "type": "uint256"
        }
      ],
      "payable": false,
      "stateMutability": "view",
      "type": "function"
    },
    {
      "anonymous": false,
      "inputs": [
        {
          "indexed": false,
          "name": "player",
          "type": "address"
        },
        {
          "indexed": false,
          "name": "name",
          "type": "string"
        }
      ],
      "name": "PlayerSetName",
      "type": "event"
    },
    {
      "anonymous": false,
      "inputs": [
        {
          "indexed": false,
          "name": "gameId",
          "type": "bytes32"
        },
        {
          "indexed": false,
          "name": "player1",
          "type": "address"
        },
        {
          "indexed": false,
          "name": "player1GoesFirst",
          "type": "bool"
        },
        {
          "indexed": false,
          "name": "pot",
          "type": "uint256"
        }
      ],
      "name": "GameInitialized",
      "type": "event"
    },
    {
      "anonymous": false,
      "inputs": [
        {
          "indexed": false,
          "name": "gameId",
          "type": "bytes32"
        },
        {
          "indexed": false,
          "name": "player2",
          "type": "address"
        }
      ],
      "name": "GameJoined",
      "type": "event"
    },
    {
      "anonymous": false,
      "inputs": [
        {
          "indexed": false,
          "name": "gameId",
          "type": "bytes32"
        },
        {
          "indexed": false,
          "name": "player",
          "type": "address"
        },
        {
          "indexed": false,
          "name": "startX",
          "type": "uint8"
        },
        {
          "indexed": false,
          "name": "endX",
          "type": "uint8"
        },
        {
          "indexed": false,
          "name": "startY",
          "type": "uint8"
        },
        {
          "indexed": false,
          "name": "endY",
          "type": "uint8"
        }
      ],
      "name": "ShipPlaced",
      "type": "event"
    },
    {
      "anonymous": false,
      "inputs": [
        {
          "indexed": false,
          "name": "gameId",
          "type": "bytes32"
        },
        {
          "indexed": false,
          "name": "newState",
          "type": "uint8"
        },
        {
          "indexed": false,
          "name": "newStateString",
          "type": "string"
        }
      ],
      "name": "StateChanged",
      "type": "event"
    },
    {
      "anonymous": false,
      "inputs": [
        {
          "indexed": false,
          "name": "testing",
          "type": "string"
        },
        {
          "indexed": false,
          "name": "gameId",
          "type": "bytes32"
        }
      ],
      "name": "GameMade",
      "type": "event"
    },
    {
      "anonymous": false,
      "inputs": [
        {
          "indexed": false,
          "name": "gameId",
          "type": "bytes32"
        },
        {
          "indexed": false,
          "name": "currentPlayer",
          "type": "address"
        },
        {
          "indexed": false,
          "name": "x",
          "type": "uint8"
        },
        {
          "indexed": false,
          "name": "y",
          "type": "uint8"
        }
      ],
      "name": "MadeMove",
      "type": "event"
    },
    {
      "anonymous": false,
      "inputs": [
        {
          "indexed": false,
          "name": "gameId",
          "type": "bytes32"
        },
        {
          "indexed": false,
          "name": "currentPlayer",
          "type": "address"
        },
        {
          "indexed": false,
          "name": "x",
          "type": "uint8"
        },
        {
          "indexed": false,
          "name": "y",
          "type": "uint8"
        },
        {
          "indexed": false,
          "name": "pieceHit",
          "type": "int8"
        }
      ],
      "name": "HitBattleShip",
      "type": "event"
    },
    {
      "anonymous": false,
      "inputs": [
        {
          "indexed": false,
          "name": "gameId",
          "type": "bytes32"
        },
        {
          "indexed": false,
          "name": "player",
          "type": "address"
        }
      ],
      "name": "WonChallenged",
      "type": "event"
    },
    {
      "anonymous": false,
      "inputs": [
        {
          "indexed": false,
          "name": "gameId",
          "type": "bytes32"
        },
        {
          "indexed": false,
          "name": "winner",
          "type": "address"
        }
      ],
      "name": "GameEnded",
      "type": "event"
    },
    {
      "anonymous": false,
      "inputs": [
        {
          "indexed": false,
          "name": "gameId",
          "type": "bytes32"
        },
        {
          "indexed": false,
          "name": "player",
          "type": "address"
        }
      ],
      "name": "WinningsWithdrawn",
      "type": "event"
    },
    {
      "anonymous": false,
      "inputs": [
        {
          "indexed": false,
          "name": "gameId",
          "type": "bytes32"
        },
        {
          "indexed": false,
          "name": "player",
          "type": "address"
        },
        {
          "indexed": false,
          "name": "reason",
          "type": "string"
        }
      ],
      "name": "WithdrawFailed",
      "type": "event"
    },
    {
      "anonymous": false,
      "inputs": [
        {
          "indexed": false,
          "name": "gameId",
          "type": "bytes32"
        },
        {
          "indexed": false,
          "name": "currentState",
          "type": "uint8"
        },
        {
          "indexed": false,
          "name": "comparingState",
          "type": "uint8"
        },
        {
          "indexed": false,
          "name": "equal",
          "type": "bool"
        }
      ],
      "name": "IsStateCalled",
      "type": "event"
    },
    {
      "anonymous": false,
      "inputs": [
        {
          "indexed": false,
          "name": "gameId",
          "type": "bytes32"
        },
        {
          "indexed": false,
          "name": "player",
          "type": "address"
        }
      ],
      "name": "IsPlayerCalled",
      "type": "event"
    },
    {
      "anonymous": false,
      "inputs": [
        {
          "indexed": false,
          "name": "gameId",
          "type": "bytes32"
        },
        {
          "indexed": false,
          "name": "state",
          "type": "uint8"
        }
      ],
      "name": "LogCurrentState",
      "type": "event"
    },
    {
      "constant": true,
      "inputs": [
        {
          "name": "source",
          "type": "string"
        }
      ],
      "name": "stringToBytes32",
      "outputs": [
        {
          "name": "result",
          "type": "bytes32"
        }
      ],
      "payable": false,
      "stateMutability": "pure",
      "type": "function"
    },
    {
      "constant": false,
      "inputs": [
        {
          "name": "gameId",
          "type": "bytes32"
        }
      ],
      "name": "withdraw",
      "outputs": [],
      "payable": true,
      "stateMutability": "payable",
      "type": "function"
    },
    {
      "constant": false,
      "inputs": [
        {
          "name": "name",
          "type": "string"
        }
      ],
      "name": "setName",
      "outputs": [],
      "payable": false,
      "stateMutability": "nonpayable",
      "type": "function"
    },
    {
      "constant": true,
      "inputs": [
        {
          "name": "gameId",
          "type": "bytes32"
        }
      ],
      "name": "findPot",
      "outputs": [
        {
          "name": "",
          "type": "uint256"
        }
      ],
      "payable": false,
      "stateMutability": "view",
      "type": "function"
    },
    {
      "constant": true,
      "inputs": [
        {
          "name": "x",
          "type": "bytes32"
        }
      ],
      "name": "bytes32ToString",
      "outputs": [
        {
          "name": "",
          "type": "string"
        }
      ],
      "payable": false,
      "stateMutability": "view",
      "type": "function"
    },
    {
      "constant": true,
      "inputs": [],
      "name": "returngameid",
      "outputs": [
        {
          "name": "",
          "type": "string"
        }
      ],
      "payable": false,
      "stateMutability": "view",
      "type": "function"
    },
    {
      "constant": false,
      "inputs": [
        {
          "name": "goFirst",
          "type": "bool"
        }
      ],
      "name": "newGame",
      "outputs": [
        {
          "name": "",
          "type": "bytes32"
        }
      ],
      "payable": true,
      "stateMutability": "payable",
      "type": "function"
    },
    {
      "constant": false,
      "inputs": [
        {
          "name": "gameId",
          "type": "bytes32"
        }
      ],
      "name": "joinGame",
      "outputs": [],
      "payable": true,
      "stateMutability": "payable",
      "type": "function"
    },
    {
      "constant": true,
      "inputs": [
        {
          "name": "gameId",
          "type": "bytes32"
        },
        {
          "name": "x",
          "type": "uint256"
        },
        {
          "name": "y",
          "type": "uint256"
        }
      ],
      "name": "showBoard",
      "outputs": [
        {
          "name": "",
          "type": "int256"
        }
      ],
      "payable": false,
      "stateMutability": "view",
      "type": "function"
    },
    {
      "constant": false,
      "inputs": [
        {
          "name": "gameId",
          "type": "bytes32"
        },
        {
          "name": "x",
          "type": "uint256"
        },
        {
          "name": "y",
          "type": "uint256"
        }
      ],
      "name": "showOtherPlayerBoard",
      "outputs": [
        {
          "name": "",
          "type": "int256"
        }
      ],
      "payable": false,
      "stateMutability": "nonpayable",
      "type": "function"
    },
    {
      "constant": false,
      "inputs": [
        {
          "name": "gameId",
          "type": "bytes32"
        },
        {
          "name": "startX",
          "type": "uint8"
        },
        {
          "name": "endX",
          "type": "uint8"
        },
        {
          "name": "startY",
          "type": "uint8"
        },
        {
          "name": "endY",
          "type": "uint8"
        }
      ],
      "name": "placeShip",
      "outputs": [],
      "payable": false,
      "stateMutability": "nonpayable",
      "type": "function"
    },
    {
      "constant": false,
      "inputs": [
        {
          "name": "gameId",
          "type": "bytes32"
        }
      ],
      "name": "finishPlacing",
      "outputs": [],
      "payable": false,
      "stateMutability": "nonpayable",
      "type": "function"
    },
    {
      "constant": false,
      "inputs": [
        {
          "name": "gameId",
          "type": "bytes32"
        },
        {
          "name": "x",
          "type": "uint8"
        },
        {
          "name": "y",
          "type": "uint8"
        }
      ],
      "name": "makeMove",
      "outputs": [],
      "payable": false,
      "stateMutability": "nonpayable",
      "type": "function"
    },
    {
      "constant": false,
      "inputs": [
        {
          "name": "gameId",
          "type": "bytes32"
        }
      ],
      "name": "sayWon",
      "outputs": [],
      "payable": false,
      "stateMutability": "nonpayable",
      "type": "function"
    }
  ],
  "bytecode": "0x60806040526005600460006101000a81548160ff021916908360ff1602179055506002600460016101000a81548160ff021916908360ff16021790555034801561004857600080fd5b50613f07806100586000396000f3fe60806040526004361061011f5760003560e01c8063a72fd2db116100a0578063c47f002711610064578063c47f0027146106cf578063cfb5192814610797578063dadc21c314610873578063e4214c50146108ae578063f579f882146108e95761011f565b8063a72fd2db14610589578063b049b341146105ba578063b56e35ff1461061d578063b8df519b1461064e578063bf474766146106a15761011f565b80637af9c515116100e75780637af9c5151461034557806380eed0b0146103a85780638e19899e146104385780639201de551461046657806399e8c4271461051a5761011f565b80630a5694c2146101245780632b170aac146101935780633ff33285146101d757806343b978b3146102265780636ff41204146102f0575b600080fd5b34801561013057600080fd5b5061017d6004803603604081101561014757600080fd5b81019080803573ffffffffffffffffffffffffffffffffffffffff16906020019092919080359060200190929190505050610af8565b6040518082815260200191505060405180910390f35b6101c1600480360360208110156101a957600080fd5b81019080803515159060200190929190505050610b26565b6040518082815260200191505060405180910390f35b3480156101e357600080fd5b50610210600480360360208110156101fa57600080fd5b81019080803590602001909291905050506110fe565b6040518082815260200191505060405180910390f35b34801561023257600080fd5b506102756004803603602081101561024957600080fd5b81019080803573ffffffffffffffffffffffffffffffffffffffff16906020019092919050505061111e565b6040518080602001828103825283818151815260200191508051906020019080838360005b838110156102b557808201518184015260208101905061029a565b50505050905090810190601f1680156102e25780820380516001836020036101000a031916815260200191505b509250505060405180910390f35b3480156102fc57600080fd5b506103436004803603606081101561031357600080fd5b8101908080359060200190929190803560ff169060200190929190803560ff1690602001909291905050506111ce565b005b34801561035157600080fd5b506103926004803603606081101561036857600080fd5b8101908080359060200190929190803590602001909291908035906020019092919050505061175c565b6040518082815260200191505060405180910390f35b3480156103b457600080fd5b506103bd6119c6565b6040518080602001828103825283818151815260200191508051906020019080838360005b838110156103fd5780820151818401526020810190506103e2565b50505050905090810190601f16801561042a5780820380516001836020036101000a031916815260200191505b509250505060405180910390f35b6104646004803603602081101561044e57600080fd5b8101908080359060200190929190505050611a2b565b005b34801561047257600080fd5b5061049f6004803603602081101561048957600080fd5b8101908080359060200190929190505050611dac565b6040518080602001828103825283818151815260200191508051906020019080838360005b838110156104df5780820151818401526020810190506104c4565b50505050905090810190601f16801561050c5780820380516001836020036101000a031916815260200191505b509250505060405180910390f35b34801561052657600080fd5b50610587600480360360a081101561053d57600080fd5b8101908080359060200190929190803560ff169060200190929190803560ff169060200190929190803560ff169060200190929190803560ff169060200190929190505050611f3f565b005b34801561059557600080fd5b5061059e6125c8565b604051808260ff1660ff16815260200191505060405180910390f35b3480156105c657600080fd5b50610607600480360360608110156105dd57600080fd5b810190808035906020019092919080359060200190929190803590602001909291905050506125db565b6040518082815260200191505060405180910390f35b34801561062957600080fd5b50610632612669565b604051808260ff1660ff16815260200191505060405180910390f35b34801561065a57600080fd5b506106876004803603602081101561067157600080fd5b810190808035906020019092919050505061267c565b604051808215151515815260200191505060405180910390f35b6106cd600480360360208110156106b757600080fd5b810190808035906020019092919050505061269c565b005b3480156106db57600080fd5b50610795600480360360208110156106f257600080fd5b810190808035906020019064010000000081111561070f57600080fd5b82018360208201111561072157600080fd5b8035906020019184600183028401116401000000008311171561074357600080fd5b91908080601f016020809104026020016040519081016040528093929190818152602001838380828437600081840152601f19601f820116905080830192505050505050509192919290505050612c54565b005b3480156107a357600080fd5b5061085d600480360360208110156107ba57600080fd5b81019080803590602001906401000000008111156107d757600080fd5b8201836020820111156107e957600080fd5b8035906020019184600183028401116401000000008311171561080b57600080fd5b91908080601f016020809104026020016040519081016040528093929190818152602001838380828437600081840152601f19601f820116905080830192505050505050509192919290505050612d1d565b6040518082815260200191505060405180910390f35b34801561087f57600080fd5b506108ac6004803603602081101561089657600080fd5b8101908080359060200190929190505050612d2b565b005b3480156108ba57600080fd5b506108e7600480360360208110156108d157600080fd5b8101908080359060200190929190505050613180565b005b3480156108f557600080fd5b506109226004803603602081101561090c57600080fd5b8101908080359060200190929190505050613794565b604051808a73ffffffffffffffffffffffffffffffffffffffff1673ffffffffffffffffffffffffffffffffffffffff1681526020018973ffffffffffffffffffffffffffffffffffffffff1673ffffffffffffffffffffffffffffffffffffffff16815260200180602001806020018873ffffffffffffffffffffffffffffffffffffffff1673ffffffffffffffffffffffffffffffffffffffff1681526020018773ffffffffffffffffffffffffffffffffffffffff1673ffffffffffffffffffffffffffffffffffffffff168152602001866003811115610a0257fe5b60ff16815260200185815260200184815260200183810383528a818151815260200191508051906020019080838360005b83811015610a4e578082015181840152602081019050610a33565b50505050905090810190601f168015610a7b5780820380516001836020036101000a031916815260200191505b50838103825289818151815260200191508051906020019080838360005b83811015610ab4578082015181840152602081019050610a99565b50505050905090810190601f168015610ae15780820380516001836020036101000a031916815260200191505b509b50505050505050505050505060405180910390f35b60036020528160005260406000208181548110610b1157fe5b90600052602060002001600091509150505481565b60008060001b610c0b6000803373ffffffffffffffffffffffffffffffffffffffff1673ffffffffffffffffffffffffffffffffffffffff1681526020019081526020016000208054600181600116156101000203166002900480601f016020809104026020016040519081016040528092919081815260200182805460018160011615610100020316600290048015610c015780601f10610bd657610100808354040283529160200191610c01565b820191906000526020600020905b815481529060010190602001808311610be457829003601f168201915b5050505050612d1d565b146110f95760003411610c1d57600080fd5b60003343604051602001808373ffffffffffffffffffffffffffffffffffffffff1673ffffffffffffffffffffffffffffffffffffffff1660601b8152601401828152602001925050506040516020818303038152906040528051906020012090507f2c98e492f370b52b50baa8f18edabc9fd8de9ce9bbf3cb659768318728ff1589816040518080602001838152602001828103825260078152602001807f74657374696e67000000000000000000000000000000000000000000000000008152506020019250505060405180910390a1600360003373ffffffffffffffffffffffffffffffffffffffff1673ffffffffffffffffffffffffffffffffffffffff1681526020019081526020016000208190806001815401808255809150509060018203906000526020600020016000909192909190915055506040518061012001604052803373ffffffffffffffffffffffffffffffffffffffff168152602001600073ffffffffffffffffffffffffffffffffffffffff1681526020016000803373ffffffffffffffffffffffffffffffffffffffff1673ffffffffffffffffffffffffffffffffffffffff1681526020019081526020016000208054600181600116156101000203166002900480601f016020809104026020016040519081016040528092919081815260200182805460018160011615610100020316600290048015610e6f5780601f10610e4457610100808354040283529160200191610e6f565b820191906000526020600020905b815481529060010190602001808311610e5257829003601f168201915b50505050508152602001604051806020016040528060008152508152602001600073ffffffffffffffffffffffffffffffffffffffff168152602001600073ffffffffffffffffffffffffffffffffffffffff16815260200160006003811115610ed557fe5b8152602001348152602001348152506002600083815260200190815260200160002060008201518160000160006101000a81548173ffffffffffffffffffffffffffffffffffffffff021916908373ffffffffffffffffffffffffffffffffffffffff16021790555060208201518160010160006101000a81548173ffffffffffffffffffffffffffffffffffffffff021916908373ffffffffffffffffffffffffffffffffffffffff1602179055506040820151816002019080519060200190610fa1929190613cb3565b506060820151816003019080519060200190610fbe929190613cb3565b5060808201518160040160006101000a81548173ffffffffffffffffffffffffffffffffffffffff021916908373ffffffffffffffffffffffffffffffffffffffff16021790555060a08201518160050160006101000a81548173ffffffffffffffffffffffffffffffffffffffff021916908373ffffffffffffffffffffffffffffffffffffffff16021790555060c08201518160050160146101000a81548160ff0219169083600381111561107157fe5b021790555060e08201518160060155610100820151816007015590505082156110ea57336002600083815260200190815260200160002060040160006101000a81548173ffffffffffffffffffffffffffffffffffffffff021916908373ffffffffffffffffffffffffffffffffffffffff1602179055505b6110f4813361399f565b809150505b919050565b600060026000838152602001908152602001600020600601549050919050565b60006020528060005260406000206000915090508054600181600116156101000203166002900480601f0160208091040260200160405190810160405280929190818152602001828054600181600116156101000203166002900480156111c65780601f1061119b576101008083540402835291602001916111c6565b820191906000526020600020905b8154815290600101906020018083116111a957829003601f168201915b505050505081565b8260027fb50b8c7887cd42a9ec052cf6f08c93c0987703edc4bb85236958ac3effb6aacd82826002600086815260200190815260200160002060050160149054906101000a900460ff166002600087815260200190815260200160002060050160149054906101000a900460ff16600381111561124757fe5b85600381111561125357fe5b146040518085815260200184600381111561126a57fe5b60ff16815260200183600381111561127e57fe5b60ff1681526020018215151515815260200194505050505060405180910390a16002600083815260200190815260200160002060050160149054906101000a900460ff1660038111156112cd57fe5b8160038111156112d957fe5b141561175557846002600082815260200190815260200160002060040160009054906101000a900473ffffffffffffffffffffffffffffffffffffffff1673ffffffffffffffffffffffffffffffffffffffff163373ffffffffffffffffffffffffffffffffffffffff1614156117535760006113568733613b8c565b905060006002600089815260200190815260200160002060080160008373ffffffffffffffffffffffffffffffffffffffff1673ffffffffffffffffffffffffffffffffffffffff1681526020019081526020016000208760ff16600a81106113bb57fe5b018660ff16600a81106113ca57fe5b602091828204019190069054906101000a900460000b60000b12156113ee57600080fd5b60016002600089815260200190815260200160002060080160008373ffffffffffffffffffffffffffffffffffffffff1673ffffffffffffffffffffffffffffffffffffffff1681526020019081526020016000208760ff16600a811061145157fe5b018660ff16600a811061146057fe5b602091828204019190069054906101000a900460000b60000b121580156115215750600460009054906101000a900460ff1660ff166002600089815260200190815260200160002060080160008373ffffffffffffffffffffffffffffffffffffffff1673ffffffffffffffffffffffffffffffffffffffff1681526020019081526020016000208760ff16600a81106114f657fe5b018660ff16600a811061150557fe5b602091828204019190069054906101000a900460000b60000b13155b15611666576002600088815260200190815260200160002060080160008273ffffffffffffffffffffffffffffffffffffffff1673ffffffffffffffffffffffffffffffffffffffff1681526020019081526020016000208660ff16600a811061158757fe5b018560ff16600a811061159657fe5b602091828204019190069054906101000a900460000b7fffffffffffffffffffffffffffffffffffffffffffffffffffffffffffffffff026002600089815260200190815260200160002060080160008373ffffffffffffffffffffffffffffffffffffffff1673ffffffffffffffffffffffffffffffffffffffff1681526020019081526020016000208760ff16600a811061162f57fe5b018660ff16600a811061163e57fe5b602091828204019190066101000a81548160ff021916908360000b60ff1602179055506116fc565b60646002600089815260200190815260200160002060080160008373ffffffffffffffffffffffffffffffffffffffff1673ffffffffffffffffffffffffffffffffffffffff1681526020019081526020016000208760ff16600a81106116c957fe5b018660ff16600a81106116d857fe5b602091828204019190066101000a81548160ff021916908360000b60ff1602179055505b806002600089815260200190815260200160002060040160006101000a81548173ffffffffffffffffffffffffffffffffffffffff021916908373ffffffffffffffffffffffffffffffffffffffff160217905550505b505b5050505050565b6000837f30c126ddfd78b554590c8e0062ead3303c3d42fee51c3546f36f6daab83bc0a78133604051808381526020018273ffffffffffffffffffffffffffffffffffffffff1673ffffffffffffffffffffffffffffffffffffffff1681526020019250505060405180910390a16002600082815260200190815260200160002060000160009054906101000a900473ffffffffffffffffffffffffffffffffffffffff1673ffffffffffffffffffffffffffffffffffffffff163373ffffffffffffffffffffffffffffffffffffffff16148061189b57506002600082815260200190815260200160002060010160009054906101000a900473ffffffffffffffffffffffffffffffffffffffff1673ffffffffffffffffffffffffffffffffffffffff163373ffffffffffffffffffffffffffffffffffffffff16145b156119be57600260038111156118ad57fe5b6002600087815260200190815260200160002060050160149054906101000a900460ff1660038111156118dc57fe5b148061192057506003808111156118ef57fe5b6002600087815260200190815260200160002060050160149054906101000a900460ff16600381111561191e57fe5b145b61192957600080fd5b60006119358633613b8c565b90506002600087815260200190815260200160002060080160008273ffffffffffffffffffffffffffffffffffffffff1673ffffffffffffffffffffffffffffffffffffffff16815260200190815260200160002085600a811061199557fe5b0184600a81106119a157fe5b602091828204019190069054906101000a900460000b60000b9250505b509392505050565b6060611a26600360003373ffffffffffffffffffffffffffffffffffffffff1673ffffffffffffffffffffffffffffffffffffffff168152602001908152602001600020600081548110611a1657fe5b9060005260206000200154611dac565b905090565b600380811115611a3757fe5b6002600083815260200190815260200160002060050160149054906101000a900460ff166003811115611a6657fe5b14611b14577fd8ba5a086eb699dea1c1fac164bb49dd3e5e16d2d6641b9bb54d36431e3c56c38133604051808381526020018273ffffffffffffffffffffffffffffffffffffffff1673ffffffffffffffffffffffffffffffffffffffff16815260200180602001828103825260178152602001807f546869732067616d652069736e74206f76657220796574000000000000000000815250602001935050505060405180910390a1611da9565b6000600260008381526020019081526020016000206007015490506000811115611d1f576002600083815260200190815260200160002060050160009054906101000a900473ffffffffffffffffffffffffffffffffffffffff1673ffffffffffffffffffffffffffffffffffffffff163373ffffffffffffffffffffffffffffffffffffffff161415611c7557600060026000848152602001908152602001600020600701819055503373ffffffffffffffffffffffffffffffffffffffff166108fc829081150290604051600060405180830381858888f19350505050158015611c04573d6000803e3d6000fd5b507f255898c86cfbf62a32125aa6ad84b1687328b28c83569cd720d2d89453337f1a8233604051808381526020018273ffffffffffffffffffffffffffffffffffffffff1673ffffffffffffffffffffffffffffffffffffffff1681526020019250505060405180910390a1611d1a565b7fd8ba5a086eb699dea1c1fac164bb49dd3e5e16d2d6641b9bb54d36431e3c56c38233604051808381526020018273ffffffffffffffffffffffffffffffffffffffff1673ffffffffffffffffffffffffffffffffffffffff168152602001806020018281038252601e8152602001807f5468697320706c61796572206861736e7420776f6e207468652067616d650000815250602001935050505060405180910390a15b611da7565b7fd8ba5a086eb699dea1c1fac164bb49dd3e5e16d2d6641b9bb54d36431e3c56c38233604051808381526020018273ffffffffffffffffffffffffffffffffffffffff1673ffffffffffffffffffffffffffffffffffffffff168152602001806020018281038252602b815260200180613eb1602b9139604001935050505060405180910390a15b505b50565b60608060206040519080825280601f01601f191660200182016040528015611de35781602001600182028038833980820191505090505b509050600080905060008090505b6020811015611e8d5760008160080260020a8660001c0260001b9050600060f81b817effffffffffffffffffffffffffffffffffffffffffffffffffffffffffffff191614611e7f5780848481518110611e4757fe5b60200101907effffffffffffffffffffffffffffffffffffffffffffffffffffffffffffff1916908160001a90535082806001019350505b508080600101915050611df1565b506060816040519080825280601f01601f191660200182016040528015611ec35781602001600182028038833980820191505090505b50905060008090505b82811015611f3357838181518110611ee057fe5b602001015160f81c60f81b828281518110611ef757fe5b60200101907effffffffffffffffffffffffffffffffffffffffffffffffffffffffffffff1916908160001a9053508080600101915050611ecc565b50809350505050919050565b847f30c126ddfd78b554590c8e0062ead3303c3d42fee51c3546f36f6daab83bc0a78133604051808381526020018273ffffffffffffffffffffffffffffffffffffffff1673ffffffffffffffffffffffffffffffffffffffff1681526020019250505060405180910390a16002600082815260200190815260200160002060000160009054906101000a900473ffffffffffffffffffffffffffffffffffffffff1673ffffffffffffffffffffffffffffffffffffffff163373ffffffffffffffffffffffffffffffffffffffff16148061207c57506002600082815260200190815260200160002060010160009054906101000a900473ffffffffffffffffffffffffffffffffffffffff1673ffffffffffffffffffffffffffffffffffffffff163373ffffffffffffffffffffffffffffffffffffffff16145b156125c0578560017fb50b8c7887cd42a9ec052cf6f08c93c0987703edc4bb85236958ac3effb6aacd82826002600086815260200190815260200160002060050160149054906101000a900460ff166002600087815260200190815260200160002060050160149054906101000a900460ff1660038111156120fa57fe5b85600381111561210657fe5b146040518085815260200184600381111561211d57fe5b60ff16815260200183600381111561213157fe5b60ff1681526020018215151515815260200194505050505060405180910390a16002600083815260200190815260200160002060050160149054906101000a900460ff16600381111561218057fe5b81600381111561218c57fe5b14156125bd578560ff168760ff1614806121ab57508360ff168560ff16145b6121b457600080fd5b8560ff168760ff1610806121cd57508360ff168560ff16105b6121d657600080fd5b600a8760ff161080156121ed575060008760ff1610155b80156121fc5750600a8660ff16105b801561220c575060008660ff1610155b801561221b5750600a8560ff16105b801561222b575060008560ff1610155b801561223a5750600a8460ff16105b801561224a575060008460ff1610155b61225357600080fd5b60008790505b8660ff168160ff16116123295760008690505b8560ff168160ff161161231b576000600260008c815260200190815260200160002060080160003373ffffffffffffffffffffffffffffffffffffffff1673ffffffffffffffffffffffffffffffffffffffff1681526020019081526020016000208360ff16600a81106122dc57fe5b018260ff16600a81106122eb57fe5b602091828204019190069054906101000a900460000b60000b1461230e57600080fd5b808060010191505061226c565b508080600101915050612259565b506000600190508660ff168860ff1614156123585761234f8560ff168760ff1603613c76565b8101905061237d565b8460ff168660ff16141561237c576123778760ff168960ff1603613c76565b810190505b5b600460009054906101000a900460ff1660ff168160ff16111580156123b75750600460019054906101000a900460ff1660ff168160ff1610155b6123c057600080fd5b600260008a815260200190815260200160002060090160003373ffffffffffffffffffffffffffffffffffffffff1673ffffffffffffffffffffffffffffffffffffffff168152602001908152602001600020600460019054906101000a900460ff16820360ff166004811061243257fe5b602091828204019190069054906101000a900460ff161561245257600080fd5b6001600260008b815260200190815260200160002060090160003373ffffffffffffffffffffffffffffffffffffffff1673ffffffffffffffffffffffffffffffffffffffff168152602001908152602001600020600460019054906101000a900460ff16830360ff16600481106124c657fe5b602091828204019190066101000a81548160ff02191690831515021790555060008890505b8760ff168160ff16116125ba5760008790505b8660ff168160ff16116125ac5782600260008d815260200190815260200160002060080160003373ffffffffffffffffffffffffffffffffffffffff1673ffffffffffffffffffffffffffffffffffffffff1681526020019081526020016000208360ff16600a811061256d57fe5b018260ff16600a811061257c57fe5b602091828204019190066101000a81548160ff021916908360000b60ff16021790555080806001019150506124fe565b5080806001019150506124eb565b50505b50505b505050505050565b600460019054906101000a900460ff1681565b60006002600085815260200190815260200160002060080160003373ffffffffffffffffffffffffffffffffffffffff1673ffffffffffffffffffffffffffffffffffffffff16815260200190815260200160002083600a811061263b57fe5b0182600a811061264757fe5b602091828204019190069054906101000a900460000b60000b90509392505050565b600460009054906101000a900460ff1681565b60016020528060005260406000206000915054906101000a900460ff1681565b6000801b61277f6000803373ffffffffffffffffffffffffffffffffffffffff1673ffffffffffffffffffffffffffffffffffffffff1681526020019081526020016000208054600181600116156101000203166002900480601f0160208091040260200160405190810160405280929190818152602001828054600181600116156101000203166002900480156127755780601f1061274a57610100808354040283529160200191612775565b820191906000526020600020905b81548152906001019060200180831161275857829003601f168201915b5050505050612d1d565b14612c51578060007fb50b8c7887cd42a9ec052cf6f08c93c0987703edc4bb85236958ac3effb6aacd82826002600086815260200190815260200160002060050160149054906101000a900460ff166002600087815260200190815260200160002060050160149054906101000a900460ff1660038111156127fd57fe5b85600381111561280957fe5b146040518085815260200184600381111561282057fe5b60ff16815260200183600381111561283457fe5b60ff1681526020018215151515815260200194505050505060405180910390a16002600083815260200190815260200160002060050160149054906101000a900460ff16600381111561288357fe5b81600381111561288f57fe5b1415612c4e57600073ffffffffffffffffffffffffffffffffffffffff166002600085815260200190815260200160002060010160009054906101000a900473ffffffffffffffffffffffffffffffffffffffff1673ffffffffffffffffffffffffffffffffffffffff161461290457600080fd5b6002600084815260200190815260200160002060060154341461292657600080fd5b336002600085815260200190815260200160002060010160006101000a81548173ffffffffffffffffffffffffffffffffffffffff021916908373ffffffffffffffffffffffffffffffffffffffff1602179055506000803373ffffffffffffffffffffffffffffffffffffffff1673ffffffffffffffffffffffffffffffffffffffff1681526020019081526020016000206002600085815260200190815260200160002060030190805460018160011615610100020316600290046129ee929190613d33565b50600360003373ffffffffffffffffffffffffffffffffffffffff1673ffffffffffffffffffffffffffffffffffffffff168152602001908152602001600020839080600181540180825580915050906001820390600052602060002001600090919290919091505550600073ffffffffffffffffffffffffffffffffffffffff166002600085815260200190815260200160002060040160009054906101000a900473ffffffffffffffffffffffffffffffffffffffff1673ffffffffffffffffffffffffffffffffffffffff161415612b1957336002600085815260200190815260200160002060040160006101000a81548173ffffffffffffffffffffffffffffffffffffffff021916908373ffffffffffffffffffffffffffffffffffffffff1602179055505b612b23833361399f565b7f719256502a190a7b4efbca7f56497055f1dccc51e2dca31d166dd41353fa21c28333604051808381526020018273ffffffffffffffffffffffffffffffffffffffff1673ffffffffffffffffffffffffffffffffffffffff1681526020019250505060405180910390a160016002600085815260200190815260200160002060050160146101000a81548160ff02191690836003811115612bc157fe5b02179055507fb4c24ba44adc7dd6a2c224259edcf26e548b1048e4b8193ee5c753d4feb33bb183600160405180838152602001826003811115612c0057fe5b60ff16815260200180602001828103825260098152602001807f53657474696e6755700000000000000000000000000000000000000000000000815250602001935050505060405180910390a15b50505b50565b601e81511115612c6357600080fd5b6000612c6e82612d1d565b90506001600082815260200190815260200160002060009054906101000a900460ff1615612c9b57600080fd5b816000803373ffffffffffffffffffffffffffffffffffffffff1673ffffffffffffffffffffffffffffffffffffffff1681526020019081526020016000209080519060200190612ced929190613dba565b50600180600083815260200190815260200160002060006101000a81548160ff0219169083151502179055505050565b600060208201519050919050565b807f30c126ddfd78b554590c8e0062ead3303c3d42fee51c3546f36f6daab83bc0a78133604051808381526020018273ffffffffffffffffffffffffffffffffffffffff1673ffffffffffffffffffffffffffffffffffffffff1681526020019250505060405180910390a16002600082815260200190815260200160002060000160009054906101000a900473ffffffffffffffffffffffffffffffffffffffff1673ffffffffffffffffffffffffffffffffffffffff163373ffffffffffffffffffffffffffffffffffffffff161480612e6857506002600082815260200190815260200160002060010160009054906101000a900473ffffffffffffffffffffffffffffffffffffffff1673ffffffffffffffffffffffffffffffffffffffff163373ffffffffffffffffffffffffffffffffffffffff16145b1561317c578160017fb50b8c7887cd42a9ec052cf6f08c93c0987703edc4bb85236958ac3effb6aacd82826002600086815260200190815260200160002060050160149054906101000a900460ff166002600087815260200190815260200160002060050160149054906101000a900460ff166003811115612ee657fe5b856003811115612ef257fe5b1460405180858152602001846003811115612f0957fe5b60ff168152602001836003811115612f1d57fe5b60ff1681526020018215151515815260200194505050505060405180910390a16002600083815260200190815260200160002060050160149054906101000a900460ff166003811115612f6c57fe5b816003811115612f7857fe5b14156131795760006001905060008090505b600460019054906101000a900460ff16600460009054906101000a900460ff160360ff168160ff1611613135576002600087815260200190815260200160002060090160006002600089815260200190815260200160002060000160009054906101000a900473ffffffffffffffffffffffffffffffffffffffff1673ffffffffffffffffffffffffffffffffffffffff1673ffffffffffffffffffffffffffffffffffffffff1681526020019081526020016000208160ff166004811061304e57fe5b602091828204019190069054906101000a900460ff16158061311a57506002600087815260200190815260200160002060090160006002600089815260200190815260200160002060010160009054906101000a900473ffffffffffffffffffffffffffffffffffffffff1673ffffffffffffffffffffffffffffffffffffffff1673ffffffffffffffffffffffffffffffffffffffff1681526020019081526020016000208160ff166004811061310257fe5b602091828204019190069054906101000a900460ff16155b156131285760009150613135565b8080600101915050612f8a565b508061314057600080fd5b600280600087815260200190815260200160002060050160146101000a81548160ff0219169083600381111561317257fe5b0217905550505b50505b5050565b807f30c126ddfd78b554590c8e0062ead3303c3d42fee51c3546f36f6daab83bc0a78133604051808381526020018273ffffffffffffffffffffffffffffffffffffffff1673ffffffffffffffffffffffffffffffffffffffff1681526020019250505060405180910390a16002600082815260200190815260200160002060000160009054906101000a900473ffffffffffffffffffffffffffffffffffffffff1673ffffffffffffffffffffffffffffffffffffffff163373ffffffffffffffffffffffffffffffffffffffff1614806132bd57506002600082815260200190815260200160002060010160009054906101000a900473ffffffffffffffffffffffffffffffffffffffff1673ffffffffffffffffffffffffffffffffffffffff163373ffffffffffffffffffffffffffffffffffffffff16145b15613790578160027fb50b8c7887cd42a9ec052cf6f08c93c0987703edc4bb85236958ac3effb6aacd82826002600086815260200190815260200160002060050160149054906101000a900460ff166002600087815260200190815260200160002060050160149054906101000a900460ff16600381111561333b57fe5b85600381111561334757fe5b146040518085815260200184600381111561335e57fe5b60ff16815260200183600381111561337257fe5b60ff1681526020018215151515815260200194505050505060405180910390a16002600083815260200190815260200160002060050160149054906101000a900460ff1660038111156133c157fe5b8160038111156133cd57fe5b141561378d577fe3ba00a8dded0a3010943716a9cd686d729f536fd0e8d41406c43591354b9d9a8433604051808381526020018273ffffffffffffffffffffffffffffffffffffffff1673ffffffffffffffffffffffffffffffffffffffff1681526020019250505060405180910390a1600061344a8533613b8c565b905060008090506000600460019054906101000a900460ff1690505b600460009054906101000a900460ff1660ff168160ff16116134945780820191508080600101915050613466565b5061349d613e3a565b6002600088815260200190815260200160002060080160008473ffffffffffffffffffffffffffffffffffffffff1673ffffffffffffffffffffffffffffffffffffffff168152602001908152602001600020600a80602002604051908101604052809291906000905b8282101561358357838201600a806020026040519081016040528092919082600a801561356f576020028201916000905b82829054906101000a900460000b60000b815260200190600101906020826000010492830192600103820291508084116135385790505b505050505081526020019060010190613507565b505050509050600080905060008090505b600a8110156135fa5760008090505b600a8110156135ec5760008483600a81106135ba57fe5b602002015182600a81106135ca57fe5b602002015160000b12156135df576001830192505b80806001019150506135a3565b508080600101915050613594565b508260ff168160ff1610613788576003600260008a815260200190815260200160002060050160146101000a81548160ff0219169083600381111561363b57fe5b02179055507fb4c24ba44adc7dd6a2c224259edcf26e548b1048e4b8193ee5c753d4feb33bb18860036040518083815260200182600381111561367a57fe5b60ff16815260200180602001828103825260088152602001807f46696e6973686564000000000000000000000000000000000000000000000000815250602001935050505060405180910390a133600260008a815260200190815260200160002060050160006101000a81548173ffffffffffffffffffffffffffffffffffffffff021916908373ffffffffffffffffffffffffffffffffffffffff1602179055507fa23e518eb8cf70d847192dfe67d27e1f9bc2e9963e43efa2fbb90acea1dbe3a28833604051808381526020018273ffffffffffffffffffffffffffffffffffffffff1673ffffffffffffffffffffffffffffffffffffffff1681526020019250505060405180910390a15b505050505b50505b5050565b60026020528060005260406000206000915090508060000160009054906101000a900473ffffffffffffffffffffffffffffffffffffffff16908060010160009054906101000a900473ffffffffffffffffffffffffffffffffffffffff1690806002018054600181600116156101000203166002900480601f01602080910402602001604051908101604052809291908181526020018280546001816001161561010002031660029004801561388c5780601f106138615761010080835404028352916020019161388c565b820191906000526020600020905b81548152906001019060200180831161386f57829003601f168201915b505050505090806003018054600181600116156101000203166002900480601f01602080910402602001604051908101604052809291908181526020018280546001816001161561010002031660029004801561392a5780601f106138ff5761010080835404028352916020019161392a565b820191906000526020600020905b81548152906001019060200180831161390d57829003601f168201915b5050505050908060040160009054906101000a900473ffffffffffffffffffffffffffffffffffffffff16908060050160009054906101000a900473ffffffffffffffffffffffffffffffffffffffff16908060050160149054906101000a900460ff16908060060154908060070154905089565b8160007fb50b8c7887cd42a9ec052cf6f08c93c0987703edc4bb85236958ac3effb6aacd82826002600086815260200190815260200160002060050160149054906101000a900460ff166002600087815260200190815260200160002060050160149054906101000a900460ff166003811115613a1857fe5b856003811115613a2457fe5b1460405180858152602001846003811115613a3b57fe5b60ff168152602001836003811115613a4f57fe5b60ff1681526020018215151515815260200194505050505060405180910390a16002600083815260200190815260200160002060050160149054906101000a900460ff166003811115613a9e57fe5b816003811115613aaa57fe5b1415613b865760008090505b600a8160ff161015613b845760008090505b600a8160ff161015613b765760006002600088815260200190815260200160002060080160008773ffffffffffffffffffffffffffffffffffffffff1673ffffffffffffffffffffffffffffffffffffffff1681526020019081526020016000208360ff16600a8110613b3757fe5b018260ff16600a8110613b4657fe5b602091828204019190066101000a81548160ff021916908360000b60ff1602179055508080600101915050613ac8565b508080600101915050613ab6565b505b50505050565b60006002600084815260200190815260200160002060000160009054906101000a900473ffffffffffffffffffffffffffffffffffffffff1673ffffffffffffffffffffffffffffffffffffffff168273ffffffffffffffffffffffffffffffffffffffff161415613c36576002600084815260200190815260200160002060010160009054906101000a900473ffffffffffffffffffffffffffffffffffffffff169050613c70565b6002600084815260200190815260200160002060000160009054906101000a900473ffffffffffffffffffffffffffffffffffffffff1690505b92915050565b600080821215613caa57817fffffffffffffffffffffffffffffffffffffffffffffffffffffffffffffffff029050613cae565b8190505b919050565b828054600181600116156101000203166002900490600052602060002090601f016020900481019282601f10613cf457805160ff1916838001178555613d22565b82800160010185558215613d22579182015b82811115613d21578251825591602001919060010190613d06565b5b509050613d2f9190613e68565b5090565b828054600181600116156101000203166002900490600052602060002090601f016020900481019282601f10613d6c5780548555613da9565b82800160010185558215613da957600052602060002091601f016020900482015b82811115613da8578254825591600101919060010190613d8d565b5b509050613db69190613e68565b5090565b828054600181600116156101000203166002900490600052602060002090601f016020900481019282601f10613dfb57805160ff1916838001178555613e29565b82800160010185558215613e29579182015b82811115613e28578251825591602001919060010190613e0d565b5b509050613e369190613e68565b5090565b60405180610c800160405280600a905b613e52613e8d565b815260200190600190039081613e4a5790505090565b613e8a91905b80821115613e86576000816000905550600101613e6e565b5090565b90565b604051806101400160405280600a9060208202803883398082019150509050509056fe4e6f206d6f72652066756e647320696e2074686520636f6e747261637420666f7220746869732067616d65a165627a7a7230582043b7e1576565e985a7b351c333d11d0d0a6af68eadb48a5e51e6d348fea97a960029",
  "source": "pragma solidity >= 0.5.0;\n\ncontract battleship {\n\n    enum GameState { Created, SettingUp, Playing, Finished }\n\n    struct Game {\n        address payable player1;\n        address payable player2;\n        string player1Name;\n        string player2Name;\n        address currentPlayer;\n        address payable winner;\n        GameState gameState;\n        uint pot;\n        uint availablePot;\n        mapping(address => int8[10][10]) playerGrids;\n        mapping(address => bool[4]) playerShips;\n    }\n\n    mapping(address => string) public playerNames;\n    mapping(bytes32 => bool) public playerNameExists;\n    mapping(bytes32 => Game) public games;\n    mapping(address => bytes32[]) public playerGames;\n\n    uint8 public maxlen = 5;\n    uint8 public minlen = 2;\n\n    int8[10][10] otherPlayerBoard;\n\n    event PlayerSetName(address player, string name);\n    event GameInitialized(bytes32 gameId, address player1, bool player1GoesFirst, uint pot);\n    event GameJoined(bytes32 gameId, address player2);\n    event ShipPlaced(bytes32 gameId, address player, uint8 startX, uint8 endX, uint8 startY, uint8 endY);\n    event StateChanged(bytes32 gameId, GameState newState, string newStateString);\n    event GameMade(string testing, bytes32 gameId );\n    event MadeMove(bytes32 gameId, address currentPlayer, uint8 x, uint8 y);\n    event HitBattleShip(bytes32 gameId, address currentPlayer, uint8 x, uint8 y, int8 pieceHit);\n    event WonChallenged(bytes32 gameId, address player);\n    event GameEnded(bytes32 gameId, address winner);\n    \n    event WinningsWithdrawn(bytes32 gameId, address player);\n    event WithdrawFailed(bytes32 gameId, address player, string reason);\n\n    event IsStateCalled(bytes32 gameId, GameState currentState, GameState comparingState, bool equal);\n    event IsPlayerCalled(bytes32 gameId, address player);\n    event LogCurrentState(bytes32 gameId, GameState state);\n\n    function stringToBytes32(string memory source) pure public returns (bytes32 result) {\n        assembly {\n            result := mload(add(source, 32))\n        }\n    }\n\n    modifier hasName() {\n        if(stringToBytes32(playerNames[msg.sender]) != bytes32(0x0)) _;\n    }\n\n    modifier isPlayer(bytes32 gameId) {\n        emit IsPlayerCalled(gameId,msg.sender);\n\n        if(msg.sender == games[gameId].player1 || msg.sender == games[gameId].player2) _;\n    }\n\n    modifier isCurrentPlayer(bytes32 gameId) {\n        if(msg.sender == games[gameId].currentPlayer) _;\n    }\n\n    modifier isState(bytes32 gameId, GameState state){\n        emit IsStateCalled(gameId,state, games[gameId].gameState, state == games[gameId].gameState);\n        if(state == games[gameId].gameState) _;\n    }\n\n    function abs(int number) internal pure returns(uint unumber) {\n        if(number < 0) return uint(-1 * number);\n        return uint(number);\n    }\n    function withdraw(bytes32 gameId) public payable{\n        if(games[gameId].gameState != GameState.Finished){\n            emit WithdrawFailed(gameId,msg.sender,'This game isnt over yet');\n        }\n        else\n        {\n            uint amount = games[gameId].availablePot;\n            if(amount > 0){\n                if(msg.sender == games[gameId].winner){\n                    games[gameId].availablePot = 0;\n                    msg.sender.transfer(amount);\n                    emit WinningsWithdrawn(gameId, msg.sender);\n                }else{\n                    emit WithdrawFailed(gameId,msg.sender,'This player hasnt won the game');\n                }\n            }else{\n                emit WithdrawFailed(gameId,msg.sender,'No more funds in the contract for this game');\n            }\n        }\n\n    }\n    function initialiseBoard(bytes32 gameId, address player) isState(gameId, GameState.Created) internal {\n        for(uint8 i = 0; i < 10; i++) {\n            for(uint8 j = 0; j < 10; j++) {\n                games[gameId].playerGrids[player][i][j] = 0;\n            }\n        }\n    }\n    \n    function findOtherPlayer(bytes32 gameId,address player) internal view returns(address) {\n        if(player == games[gameId].player1) return games[gameId].player2;\n        return games[gameId].player1;\n    }\n\n    function setName(string memory name ) public{\n        require(bytes(name).length <= 30);\n        bytes32 bytesname = stringToBytes32(name);\n        require(!playerNameExists[bytesname]);\n        playerNames[msg.sender] = name;\n        playerNameExists[bytesname] = true;\n    }\n\n    function findPot(bytes32 gameId) view public returns(uint){\n        return games[gameId].pot;\n    }\n    function bytes32ToString(bytes32 x) public view returns (string memory) {\n    bytes memory bytesString = new bytes(32);\n    uint charCount = 0;\n    for (uint j = 0; j < 32; j++) {\n        byte char = byte(bytes32(uint(x) * 2 ** (8 * j)));\n        if (char != 0) {\n            bytesString[charCount] = char;\n            charCount++;\n        }\n    }\n    bytes memory bytesStringTrimmed = new bytes(charCount);\n    for (uint j = 0; j < charCount; j++) {\n        bytesStringTrimmed[j] = bytesString[j];\n    }\n    return string(bytesStringTrimmed);\n}\n    function returngameid() public view returns(string memory){\n        return bytes32ToString(playerGames[msg.sender][0]);\n    }\n    function newGame(bool goFirst) public hasName payable returns(bytes32){\n        require(msg.value > 0);\n        // bytes32 gameId = keccak256(msg.sender, block.number);\n        bytes32 gameId = keccak256(abi.encodePacked(msg.sender, block.number));\n        emit GameMade(\"testing\", gameId);\n        playerGames[msg.sender].push(gameId);\n        games[gameId] = Game(\n            msg.sender, // address player1;\n            address(0), // address player2;\n            playerNames[msg.sender], //     string player1Name;\n            \"\",  // string player2Name;\n            address(0), // address currentPlayer;\n            address(0), // address winner;\n            GameState.Created, // GameState gameState;\n            msg.value,    // uint pot;\n            msg.value    // uint availablePot;\n        );\n        if(goFirst){\n            games[gameId].currentPlayer = msg.sender;\n        }\n        initialiseBoard(gameId,msg.sender);\n        return gameId;\n    }\n\n    function joinGame(bytes32 gameId) public hasName  isState(gameId, GameState.Created) payable {\n        require(games[gameId].player2 == address(0));\n        require(msg.value == games[gameId].pot);\n        games[gameId].player2 = msg.sender;\n        games[gameId].player2Name = playerNames[msg.sender];\n        playerGames[msg.sender].push(gameId);\n        if(games[gameId].currentPlayer == address(0)){\n            games[gameId].currentPlayer = msg.sender;\n        }\n        initialiseBoard(gameId,msg.sender);\n        emit GameJoined(gameId,msg.sender);\n        games[gameId].gameState = GameState.SettingUp;\n        emit StateChanged(gameId,GameState.SettingUp,\"SettingUp\");\n    }\n    function showBoard(bytes32 gameId, uint x, uint y) public view returns(int){\n        return games[gameId].playerGrids[msg.sender][x][y];\n    }\n    function showOtherPlayerBoard(bytes32 gameId, uint x, uint y) public isPlayer(gameId) returns(int){\n        require(games[gameId].gameState == GameState.Playing || games[gameId].gameState == GameState.Finished);\n        address otherPlayer = findOtherPlayer(gameId, msg.sender);\n        return  games[gameId].playerGrids[otherPlayer][x][y];\n    }\n\n    function placeShip(bytes32 gameId, uint8 startX, uint8 endX, uint8 startY, uint8 endY) public isPlayer(gameId) isState(gameId,GameState.SettingUp) {\n        \n        require(startX == endX || startY == endY);\n        require(startX < endX || startY < endY);\n        require(startX  < 10 && startX  >= 0 &&\n                endX    < 10 && endX    >= 0 &&\n                startY  < 10 && startY  >= 0 &&\n                endY    < 10 && endY    >= 0);\n        for(uint8 x = startX; x <= endX; x++) \n        {\n            for(uint8 y = startY; y <= endY; y++) \n            {\n                require(games[gameId].playerGrids[msg.sender][x][y] == 0);\n            }   \n        }\n        uint8 boatLength = 1;\n        if(startX == endX) \n        {\n            boatLength += uint8(abs(int(startY)-int(endY)));\n        }\n        else if(startY == endY) \n        {\n            boatLength += uint8(abs(int(startX)-int(endX)));\n        }\n\n        require(boatLength <= maxlen && boatLength >= minlen);\n        require(!(games[gameId].playerShips[msg.sender][boatLength-minlen]));\n\n        games[gameId].playerShips[msg.sender][boatLength - minlen] = true;\n\n        for(uint8 x = startX; x <= endX; x++) \n        {\n            for( uint8 y = startY; y <= endY; y++) \n            {\n                games[gameId].playerGrids[msg.sender][x][y] = int8(boatLength);\n            }   \n        }\n    }\n\n    function finishPlacing(bytes32 gameId) isPlayer(gameId) public isState(gameId,GameState.SettingUp) {\n        bool ready = true;\n        for(uint8 i = 0; i <= maxlen - minlen; i++) \n        {\n            if(!games[gameId].playerShips[games[gameId].player1][i] || !games[gameId].playerShips[games[gameId].player2][i]) \n            {\n                ready = false;\n                break;\n            }\n        }\n        require(ready);\n        games[gameId].gameState = GameState.Playing;\n    }\n\n    function makeMove(bytes32 gameId, uint8 x, uint8 y) public isState(gameId,GameState.Playing) isCurrentPlayer(gameId) {\n        address otherPlayer = findOtherPlayer(gameId, msg.sender);\n        require(games[gameId].playerGrids[otherPlayer][x][y] >= 0);\n        if(games[gameId].playerGrids[otherPlayer][x][y] >= 1 && games[gameId].playerGrids[otherPlayer][x][y] <= int(maxlen))\n        {\n            games[gameId].playerGrids[otherPlayer][x][y] = -1 * games[gameId].playerGrids[otherPlayer][x][y];\n        }\n        else\n        {\n            games[gameId].playerGrids[otherPlayer][x][y] = 100;\n        }\n\n        games[gameId].currentPlayer = otherPlayer;\n    }\n\n    function sayWon(bytes32 gameId) isPlayer(gameId) isState(gameId,GameState.Playing) public\n    {\n        emit WonChallenged(gameId,msg.sender);\n        address otherPlayer = findOtherPlayer(gameId,msg.sender);\n        uint8 requiredToWin = 0;\n        for(uint8 i = minlen; i <= maxlen; i++){\n            requiredToWin += i;\n        }\n        int8[10][10] memory otherPlayerGrid = games[gameId].playerGrids[otherPlayer];\n        uint8 numberHit = 0;\n        for(uint i = 0;  i < 10; i++) {\n            for(uint j = 0;  j < 10; j++) {\n                if(otherPlayerGrid[i][j] < 0){\n                    numberHit += 1;\n                }\n            }    \n        }\n        if(numberHit >= requiredToWin){\n            games[gameId].gameState = GameState.Finished;\n            emit StateChanged(gameId,GameState.Finished,\"Finished\");\n            games[gameId].winner = msg.sender;\n            emit GameEnded(gameId,msg.sender);\n        }    \n    }\n\n\n\n    // function () public {\n    //     revert(\"accidental sending\"); // Prevents accidental sending of ether\n    // }\n\n}\n",
  "sourcePath": "/home/akshay/Documents/Course docs/Blockchain/assignments/Battleship-dAPP/contracts/battleship.sol",
  "compiler": {
    "name": "solc",
    "version": "0.5.8+commit.23d335f2.Emscripten.clang"
  },
  "schemaVersion": "3.0.15",
  "updatedAt": "2019-11-11T17:43:17.590Z",
  "devdoc": {
    "methods": {}
  },
  "userdoc": {
    "methods": {}
  }
}