{
  "contractName": "battleship",
  "abi": [
    {
      "constant": true,
      "inputs": [
        {
          "name": "",
          "type": "address"
        },
        {
          "name": "",
          "type": "uint256"
        }
      ],
      "name": "playerGames",
      "outputs": [
        {
          "name": "",
          "type": "bytes32"
        }
      ],
      "payable": false,
      "stateMutability": "view",
      "type": "function"
    },
    {
      "constant": true,
      "inputs": [
        {
          "name": "",
          "type": "address"
        }
      ],
      "name": "playerNames",
      "outputs": [
        {
          "name": "",
          "type": "string"
        }
      ],
      "payable": false,
      "stateMutability": "view",
      "type": "function"
    },
    {
      "constant": true,
      "inputs": [],
      "name": "minlen",
      "outputs": [
        {
          "name": "",
          "type": "uint8"
        }
      ],
      "payable": false,
      "stateMutability": "view",
      "type": "function"
    },
    {
      "constant": true,
      "inputs": [],
      "name": "maxlen",
      "outputs": [
        {
          "name": "",
          "type": "uint8"
        }
      ],
      "payable": false,
      "stateMutability": "view",
      "type": "function"
    },
    {
      "constant": true,
      "inputs": [
        {
          "name": "",
          "type": "bytes32"
        }
      ],
      "name": "playerNameExists",
      "outputs": [
        {
          "name": "",
          "type": "bool"
        }
      ],
      "payable": false,
      "stateMutability": "view",
      "type": "function"
    },
    {
      "constant": true,
      "inputs": [
        {
          "name": "",
          "type": "bytes32"
        }
      ],
      "name": "games",
      "outputs": [
        {
          "name": "player1",
          "type": "address"
        },
        {
          "name": "player2",
          "type": "address"
        },
        {
          "name": "player1Name",
          "type": "string"
        },
        {
          "name": "player2Name",
          "type": "string"
        },
        {
          "name": "currentPlayer",
          "type": "address"
        },
        {
          "name": "winner",
          "type": "address"
        },
        {
          "name": "gameState",
          "type": "uint8"
        },
        {
          "name": "pot",
          "type": "uint256"
        },
        {
          "name": "availablePot",
          "type": "uint256"
        }
      ],
      "payable": false,
      "stateMutability": "view",
      "type": "function"
    },
    {
      "anonymous": false,
      "inputs": [
        {
          "indexed": false,
          "name": "player",
          "type": "address"
        },
        {
          "indexed": false,
          "name": "name",
          "type": "string"
        }
      ],
      "name": "PlayerSetName",
      "type": "event"
    },
    {
      "anonymous": false,
      "inputs": [
        {
          "indexed": false,
          "name": "gameId",
          "type": "bytes32"
        },
        {
          "indexed": false,
          "name": "player1",
          "type": "address"
        },
        {
          "indexed": false,
          "name": "player1GoesFirst",
          "type": "bool"
        },
        {
          "indexed": false,
          "name": "pot",
          "type": "uint256"
        }
      ],
      "name": "GameInitialized",
      "type": "event"
    },
    {
      "anonymous": false,
      "inputs": [
        {
          "indexed": false,
          "name": "gameId",
          "type": "bytes32"
        },
        {
          "indexed": false,
          "name": "player2",
          "type": "address"
        }
      ],
      "name": "GameJoined",
      "type": "event"
    },
    {
      "anonymous": false,
      "inputs": [
        {
          "indexed": false,
          "name": "gameId",
          "type": "bytes32"
        },
        {
          "indexed": false,
          "name": "player",
          "type": "address"
        },
        {
          "indexed": false,
          "name": "startX",
          "type": "uint8"
        },
        {
          "indexed": false,
          "name": "endX",
          "type": "uint8"
        },
        {
          "indexed": false,
          "name": "startY",
          "type": "uint8"
        },
        {
          "indexed": false,
          "name": "endY",
          "type": "uint8"
        }
      ],
      "name": "ShipPlaced",
      "type": "event"
    },
    {
      "anonymous": false,
      "inputs": [
        {
          "indexed": false,
          "name": "gameId",
          "type": "bytes32"
        },
        {
          "indexed": false,
          "name": "newState",
          "type": "uint8"
        },
        {
          "indexed": false,
          "name": "newStateString",
          "type": "string"
        }
      ],
      "name": "StateChanged",
      "type": "event"
    },
    {
      "anonymous": false,
      "inputs": [
        {
          "indexed": false,
          "name": "gameId",
          "type": "bytes32"
        },
        {
          "indexed": false,
          "name": "currentPlayer",
          "type": "address"
        },
        {
          "indexed": false,
          "name": "x",
          "type": "uint8"
        },
        {
          "indexed": false,
          "name": "y",
          "type": "uint8"
        }
      ],
      "name": "MadeMove",
      "type": "event"
    },
    {
      "anonymous": false,
      "inputs": [
        {
          "indexed": false,
          "name": "gameId",
          "type": "bytes32"
        },
        {
          "indexed": false,
          "name": "currentPlayer",
          "type": "address"
        },
        {
          "indexed": false,
          "name": "x",
          "type": "uint8"
        },
        {
          "indexed": false,
          "name": "y",
          "type": "uint8"
        },
        {
          "indexed": false,
          "name": "pieceHit",
          "type": "int8"
        }
      ],
      "name": "HitBattleShip",
      "type": "event"
    },
    {
      "anonymous": false,
      "inputs": [
        {
          "indexed": false,
          "name": "gameId",
          "type": "bytes32"
        },
        {
          "indexed": false,
          "name": "player",
          "type": "address"
        }
      ],
      "name": "WonChallenged",
      "type": "event"
    },
    {
      "anonymous": false,
      "inputs": [
        {
          "indexed": false,
          "name": "gameId",
          "type": "bytes32"
        },
        {
          "indexed": false,
          "name": "winner",
          "type": "address"
        }
      ],
      "name": "GameEnded",
      "type": "event"
    },
    {
      "anonymous": false,
      "inputs": [
        {
          "indexed": false,
          "name": "gameId",
          "type": "bytes32"
        },
        {
          "indexed": false,
          "name": "player",
          "type": "address"
        }
      ],
      "name": "WinningsWithdrawn",
      "type": "event"
    },
    {
      "anonymous": false,
      "inputs": [
        {
          "indexed": false,
          "name": "gameId",
          "type": "bytes32"
        },
        {
          "indexed": false,
          "name": "player",
          "type": "address"
        },
        {
          "indexed": false,
          "name": "reason",
          "type": "string"
        }
      ],
      "name": "WithdrawFailed",
      "type": "event"
    },
    {
      "anonymous": false,
      "inputs": [
        {
          "indexed": false,
          "name": "gameId",
          "type": "bytes32"
        },
        {
          "indexed": false,
          "name": "currentState",
          "type": "uint8"
        },
        {
          "indexed": false,
          "name": "comparingState",
          "type": "uint8"
        },
        {
          "indexed": false,
          "name": "equal",
          "type": "bool"
        }
      ],
      "name": "IsStateCalled",
      "type": "event"
    },
    {
      "anonymous": false,
      "inputs": [
        {
          "indexed": false,
          "name": "gameId",
          "type": "bytes32"
        },
        {
          "indexed": false,
          "name": "player",
          "type": "address"
        }
      ],
      "name": "IsPlayerCalled",
      "type": "event"
    },
    {
      "anonymous": false,
      "inputs": [
        {
          "indexed": false,
          "name": "gameId",
          "type": "bytes32"
        },
        {
          "indexed": false,
          "name": "state",
          "type": "uint8"
        }
      ],
      "name": "LogCurrentState",
      "type": "event"
    },
    {
      "constant": true,
      "inputs": [
        {
          "name": "source",
          "type": "string"
        }
      ],
      "name": "stringToBytes32",
      "outputs": [
        {
          "name": "result",
          "type": "bytes32"
        }
      ],
      "payable": false,
      "stateMutability": "pure",
      "type": "function"
    },
    {
      "constant": false,
      "inputs": [
        {
          "name": "gameId",
          "type": "bytes32"
        }
      ],
      "name": "withdraw",
      "outputs": [],
      "payable": true,
      "stateMutability": "payable",
      "type": "function"
    },
    {
      "constant": false,
      "inputs": [
        {
          "name": "name",
          "type": "string"
        }
      ],
      "name": "setName",
      "outputs": [],
      "payable": false,
      "stateMutability": "nonpayable",
      "type": "function"
    },
    {
      "constant": true,
      "inputs": [
        {
          "name": "gameId",
          "type": "bytes32"
        }
      ],
      "name": "findPot",
      "outputs": [
        {
          "name": "",
          "type": "uint256"
        }
      ],
      "payable": false,
      "stateMutability": "view",
      "type": "function"
    },
    {
      "constant": true,
      "inputs": [
        {
          "name": "x",
          "type": "bytes32"
        }
      ],
      "name": "bytes32ToString",
      "outputs": [
        {
          "name": "",
          "type": "string"
        }
      ],
      "payable": false,
      "stateMutability": "view",
      "type": "function"
    },
    {
      "constant": true,
      "inputs": [],
      "name": "returngameid",
      "outputs": [
        {
          "name": "",
          "type": "string"
        }
      ],
      "payable": false,
      "stateMutability": "view",
      "type": "function"
    },
    {
      "constant": false,
      "inputs": [
        {
          "name": "goFirst",
          "type": "bool"
        }
      ],
      "name": "newGame",
      "outputs": [
        {
          "name": "",
          "type": "bytes32"
        }
      ],
      "payable": true,
      "stateMutability": "payable",
      "type": "function"
    },
    {
      "constant": false,
      "inputs": [
        {
          "name": "gameId",
          "type": "bytes32"
        }
      ],
      "name": "joinGame",
      "outputs": [],
      "payable": true,
      "stateMutability": "payable",
      "type": "function"
    },
    {
      "constant": true,
      "inputs": [
        {
          "name": "gameId",
          "type": "bytes32"
        },
        {
          "name": "x",
          "type": "uint256"
        },
        {
          "name": "y",
          "type": "uint256"
        }
      ],
      "name": "showBoard",
      "outputs": [
        {
          "name": "",
          "type": "int256"
        }
      ],
      "payable": false,
      "stateMutability": "view",
      "type": "function"
    },
    {
      "constant": false,
      "inputs": [
        {
          "name": "gameId",
          "type": "bytes32"
        },
        {
          "name": "x",
          "type": "uint256"
        },
        {
          "name": "y",
          "type": "uint256"
        }
      ],
      "name": "showOtherPlayerBoard",
      "outputs": [
        {
          "name": "",
          "type": "int256"
        }
      ],
      "payable": false,
      "stateMutability": "nonpayable",
      "type": "function"
    },
    {
      "constant": false,
      "inputs": [
        {
          "name": "gameId",
          "type": "bytes32"
        },
        {
          "name": "startX",
          "type": "uint8"
        },
        {
          "name": "endX",
          "type": "uint8"
        },
        {
          "name": "startY",
          "type": "uint8"
        },
        {
          "name": "endY",
          "type": "uint8"
        }
      ],
      "name": "placeShip",
      "outputs": [],
      "payable": false,
      "stateMutability": "nonpayable",
      "type": "function"
    },
    {
      "constant": false,
      "inputs": [
        {
          "name": "gameId",
          "type": "bytes32"
        }
      ],
      "name": "finishPlacing",
      "outputs": [],
      "payable": false,
      "stateMutability": "nonpayable",
      "type": "function"
    },
    {
      "constant": false,
      "inputs": [
        {
          "name": "gameId",
          "type": "bytes32"
        },
        {
          "name": "x",
          "type": "uint8"
        },
        {
          "name": "y",
          "type": "uint8"
        }
      ],
      "name": "makeMove",
      "outputs": [],
      "payable": false,
      "stateMutability": "nonpayable",
      "type": "function"
    },
    {
      "constant": false,
      "inputs": [
        {
          "name": "gameId",
          "type": "bytes32"
        }
      ],
      "name": "sayWon",
      "outputs": [],
      "payable": false,
      "stateMutability": "nonpayable",
      "type": "function"
    }
  ],
  "bytecode": "0x60806040526005600460006101000a81548160ff021916908360ff1602179055506002600460016101000a81548160ff021916908360ff16021790555034801561004857600080fd5b50613e97806100586000396000f3fe60806040526004361061011f5760003560e01c8063a72fd2db116100a0578063c47f002711610064578063c47f0027146106cf578063cfb5192814610797578063dadc21c314610873578063e4214c50146108ae578063f579f882146108e95761011f565b8063a72fd2db14610589578063b049b341146105ba578063b56e35ff1461061d578063b8df519b1461064e578063bf474766146106a15761011f565b80637af9c515116100e75780637af9c5151461034557806380eed0b0146103a85780638e19899e146104385780639201de551461046657806399e8c4271461051a5761011f565b80630a5694c2146101245780632b170aac146101935780633ff33285146101d757806343b978b3146102265780636ff41204146102f0575b600080fd5b34801561013057600080fd5b5061017d6004803603604081101561014757600080fd5b81019080803573ffffffffffffffffffffffffffffffffffffffff16906020019092919080359060200190929190505050610af8565b6040518082815260200191505060405180910390f35b6101c1600480360360208110156101a957600080fd5b81019080803515159060200190929190505050610b26565b6040518082815260200191505060405180910390f35b3480156101e357600080fd5b50610210600480360360208110156101fa57600080fd5b810190808035906020019092919050505061108e565b6040518082815260200191505060405180910390f35b34801561023257600080fd5b506102756004803603602081101561024957600080fd5b81019080803573ffffffffffffffffffffffffffffffffffffffff1690602001909291905050506110ae565b6040518080602001828103825283818151815260200191508051906020019080838360005b838110156102b557808201518184015260208101905061029a565b50505050905090810190601f1680156102e25780820380516001836020036101000a031916815260200191505b509250505060405180910390f35b3480156102fc57600080fd5b506103436004803603606081101561031357600080fd5b8101908080359060200190929190803560ff169060200190929190803560ff16906020019092919050505061115e565b005b34801561035157600080fd5b506103926004803603606081101561036857600080fd5b810190808035906020019092919080359060200190929190803590602001909291905050506116ec565b6040518082815260200191505060405180910390f35b3480156103b457600080fd5b506103bd611956565b6040518080602001828103825283818151815260200191508051906020019080838360005b838110156103fd5780820151818401526020810190506103e2565b50505050905090810190601f16801561042a5780820380516001836020036101000a031916815260200191505b509250505060405180910390f35b6104646004803603602081101561044e57600080fd5b81019080803590602001909291905050506119bb565b005b34801561047257600080fd5b5061049f6004803603602081101561048957600080fd5b8101908080359060200190929190505050611d3c565b6040518080602001828103825283818151815260200191508051906020019080838360005b838110156104df5780820151818401526020810190506104c4565b50505050905090810190601f16801561050c5780820380516001836020036101000a031916815260200191505b509250505060405180910390f35b34801561052657600080fd5b50610587600480360360a081101561053d57600080fd5b8101908080359060200190929190803560ff169060200190929190803560ff169060200190929190803560ff169060200190929190803560ff169060200190929190505050611ecf565b005b34801561059557600080fd5b5061059e612558565b604051808260ff1660ff16815260200191505060405180910390f35b3480156105c657600080fd5b50610607600480360360608110156105dd57600080fd5b8101908080359060200190929190803590602001909291908035906020019092919050505061256b565b6040518082815260200191505060405180910390f35b34801561062957600080fd5b506106326125f9565b604051808260ff1660ff16815260200191505060405180910390f35b34801561065a57600080fd5b506106876004803603602081101561067157600080fd5b810190808035906020019092919050505061260c565b604051808215151515815260200191505060405180910390f35b6106cd600480360360208110156106b757600080fd5b810190808035906020019092919050505061262c565b005b3480156106db57600080fd5b50610795600480360360208110156106f257600080fd5b810190808035906020019064010000000081111561070f57600080fd5b82018360208201111561072157600080fd5b8035906020019184600183028401116401000000008311171561074357600080fd5b91908080601f016020809104026020016040519081016040528093929190818152602001838380828437600081840152601f19601f820116905080830192505050505050509192919290505050612be4565b005b3480156107a357600080fd5b5061085d600480360360208110156107ba57600080fd5b81019080803590602001906401000000008111156107d757600080fd5b8201836020820111156107e957600080fd5b8035906020019184600183028401116401000000008311171561080b57600080fd5b91908080601f016020809104026020016040519081016040528093929190818152602001838380828437600081840152601f19601f820116905080830192505050505050509192919290505050612cad565b6040518082815260200191505060405180910390f35b34801561087f57600080fd5b506108ac6004803603602081101561089657600080fd5b8101908080359060200190929190505050612cbb565b005b3480156108ba57600080fd5b506108e7600480360360208110156108d157600080fd5b8101908080359060200190929190505050613110565b005b3480156108f557600080fd5b506109226004803603602081101561090c57600080fd5b8101908080359060200190929190505050613724565b604051808a73ffffffffffffffffffffffffffffffffffffffff1673ffffffffffffffffffffffffffffffffffffffff1681526020018973ffffffffffffffffffffffffffffffffffffffff1673ffffffffffffffffffffffffffffffffffffffff16815260200180602001806020018873ffffffffffffffffffffffffffffffffffffffff1673ffffffffffffffffffffffffffffffffffffffff1681526020018773ffffffffffffffffffffffffffffffffffffffff1673ffffffffffffffffffffffffffffffffffffffff168152602001866003811115610a0257fe5b60ff16815260200185815260200184815260200183810383528a818151815260200191508051906020019080838360005b83811015610a4e578082015181840152602081019050610a33565b50505050905090810190601f168015610a7b5780820380516001836020036101000a031916815260200191505b50838103825289818151815260200191508051906020019080838360005b83811015610ab4578082015181840152602081019050610a99565b50505050905090810190601f168015610ae15780820380516001836020036101000a031916815260200191505b509b50505050505050505050505060405180910390f35b60036020528160005260406000208181548110610b1157fe5b90600052602060002001600091509150505481565b60008060001b610c0b6000803373ffffffffffffffffffffffffffffffffffffffff1673ffffffffffffffffffffffffffffffffffffffff1681526020019081526020016000208054600181600116156101000203166002900480601f016020809104026020016040519081016040528092919081815260200182805460018160011615610100020316600290048015610c015780601f10610bd657610100808354040283529160200191610c01565b820191906000526020600020905b815481529060010190602001808311610be457829003601f168201915b5050505050612cad565b146110895760003411610c1d57600080fd5b60003343604051602001808373ffffffffffffffffffffffffffffffffffffffff1673ffffffffffffffffffffffffffffffffffffffff1660601b815260140182815260200192505050604051602081830303815290604052805190602001209050600360003373ffffffffffffffffffffffffffffffffffffffff1673ffffffffffffffffffffffffffffffffffffffff1681526020019081526020016000208190806001815401808255809150509060018203906000526020600020016000909192909190915055506040518061012001604052803373ffffffffffffffffffffffffffffffffffffffff168152602001600073ffffffffffffffffffffffffffffffffffffffff1681526020016000803373ffffffffffffffffffffffffffffffffffffffff1673ffffffffffffffffffffffffffffffffffffffff1681526020019081526020016000208054600181600116156101000203166002900480601f016020809104026020016040519081016040528092919081815260200182805460018160011615610100020316600290048015610dff5780601f10610dd457610100808354040283529160200191610dff565b820191906000526020600020905b815481529060010190602001808311610de257829003601f168201915b50505050508152602001604051806020016040528060008152508152602001600073ffffffffffffffffffffffffffffffffffffffff168152602001600073ffffffffffffffffffffffffffffffffffffffff16815260200160006003811115610e6557fe5b8152602001348152602001348152506002600083815260200190815260200160002060008201518160000160006101000a81548173ffffffffffffffffffffffffffffffffffffffff021916908373ffffffffffffffffffffffffffffffffffffffff16021790555060208201518160010160006101000a81548173ffffffffffffffffffffffffffffffffffffffff021916908373ffffffffffffffffffffffffffffffffffffffff1602179055506040820151816002019080519060200190610f31929190613c43565b506060820151816003019080519060200190610f4e929190613c43565b5060808201518160040160006101000a81548173ffffffffffffffffffffffffffffffffffffffff021916908373ffffffffffffffffffffffffffffffffffffffff16021790555060a08201518160050160006101000a81548173ffffffffffffffffffffffffffffffffffffffff021916908373ffffffffffffffffffffffffffffffffffffffff16021790555060c08201518160050160146101000a81548160ff0219169083600381111561100157fe5b021790555060e082015181600601556101008201518160070155905050821561107a57336002600083815260200190815260200160002060040160006101000a81548173ffffffffffffffffffffffffffffffffffffffff021916908373ffffffffffffffffffffffffffffffffffffffff1602179055505b611084813361392f565b809150505b919050565b600060026000838152602001908152602001600020600601549050919050565b60006020528060005260406000206000915090508054600181600116156101000203166002900480601f0160208091040260200160405190810160405280929190818152602001828054600181600116156101000203166002900480156111565780601f1061112b57610100808354040283529160200191611156565b820191906000526020600020905b81548152906001019060200180831161113957829003601f168201915b505050505081565b8260027fb50b8c7887cd42a9ec052cf6f08c93c0987703edc4bb85236958ac3effb6aacd82826002600086815260200190815260200160002060050160149054906101000a900460ff166002600087815260200190815260200160002060050160149054906101000a900460ff1660038111156111d757fe5b8560038111156111e357fe5b14604051808581526020018460038111156111fa57fe5b60ff16815260200183600381111561120e57fe5b60ff1681526020018215151515815260200194505050505060405180910390a16002600083815260200190815260200160002060050160149054906101000a900460ff16600381111561125d57fe5b81600381111561126957fe5b14156116e557846002600082815260200190815260200160002060040160009054906101000a900473ffffffffffffffffffffffffffffffffffffffff1673ffffffffffffffffffffffffffffffffffffffff163373ffffffffffffffffffffffffffffffffffffffff1614156116e35760006112e68733613b1c565b905060006002600089815260200190815260200160002060080160008373ffffffffffffffffffffffffffffffffffffffff1673ffffffffffffffffffffffffffffffffffffffff1681526020019081526020016000208760ff16600a811061134b57fe5b018660ff16600a811061135a57fe5b602091828204019190069054906101000a900460000b60000b121561137e57600080fd5b60016002600089815260200190815260200160002060080160008373ffffffffffffffffffffffffffffffffffffffff1673ffffffffffffffffffffffffffffffffffffffff1681526020019081526020016000208760ff16600a81106113e157fe5b018660ff16600a81106113f057fe5b602091828204019190069054906101000a900460000b60000b121580156114b15750600460009054906101000a900460ff1660ff166002600089815260200190815260200160002060080160008373ffffffffffffffffffffffffffffffffffffffff1673ffffffffffffffffffffffffffffffffffffffff1681526020019081526020016000208760ff16600a811061148657fe5b018660ff16600a811061149557fe5b602091828204019190069054906101000a900460000b60000b13155b156115f6576002600088815260200190815260200160002060080160008273ffffffffffffffffffffffffffffffffffffffff1673ffffffffffffffffffffffffffffffffffffffff1681526020019081526020016000208660ff16600a811061151757fe5b018560ff16600a811061152657fe5b602091828204019190069054906101000a900460000b7fffffffffffffffffffffffffffffffffffffffffffffffffffffffffffffffff026002600089815260200190815260200160002060080160008373ffffffffffffffffffffffffffffffffffffffff1673ffffffffffffffffffffffffffffffffffffffff1681526020019081526020016000208760ff16600a81106115bf57fe5b018660ff16600a81106115ce57fe5b602091828204019190066101000a81548160ff021916908360000b60ff16021790555061168c565b60646002600089815260200190815260200160002060080160008373ffffffffffffffffffffffffffffffffffffffff1673ffffffffffffffffffffffffffffffffffffffff1681526020019081526020016000208760ff16600a811061165957fe5b018660ff16600a811061166857fe5b602091828204019190066101000a81548160ff021916908360000b60ff1602179055505b806002600089815260200190815260200160002060040160006101000a81548173ffffffffffffffffffffffffffffffffffffffff021916908373ffffffffffffffffffffffffffffffffffffffff160217905550505b505b5050505050565b6000837f30c126ddfd78b554590c8e0062ead3303c3d42fee51c3546f36f6daab83bc0a78133604051808381526020018273ffffffffffffffffffffffffffffffffffffffff1673ffffffffffffffffffffffffffffffffffffffff1681526020019250505060405180910390a16002600082815260200190815260200160002060000160009054906101000a900473ffffffffffffffffffffffffffffffffffffffff1673ffffffffffffffffffffffffffffffffffffffff163373ffffffffffffffffffffffffffffffffffffffff16148061182b57506002600082815260200190815260200160002060010160009054906101000a900473ffffffffffffffffffffffffffffffffffffffff1673ffffffffffffffffffffffffffffffffffffffff163373ffffffffffffffffffffffffffffffffffffffff16145b1561194e576002600381111561183d57fe5b6002600087815260200190815260200160002060050160149054906101000a900460ff16600381111561186c57fe5b14806118b0575060038081111561187f57fe5b6002600087815260200190815260200160002060050160149054906101000a900460ff1660038111156118ae57fe5b145b6118b957600080fd5b60006118c58633613b1c565b90506002600087815260200190815260200160002060080160008273ffffffffffffffffffffffffffffffffffffffff1673ffffffffffffffffffffffffffffffffffffffff16815260200190815260200160002085600a811061192557fe5b0184600a811061193157fe5b602091828204019190069054906101000a900460000b60000b9250505b509392505050565b60606119b6600360003373ffffffffffffffffffffffffffffffffffffffff1673ffffffffffffffffffffffffffffffffffffffff1681526020019081526020016000206000815481106119a657fe5b9060005260206000200154611d3c565b905090565b6003808111156119c757fe5b6002600083815260200190815260200160002060050160149054906101000a900460ff1660038111156119f657fe5b14611aa4577fd8ba5a086eb699dea1c1fac164bb49dd3e5e16d2d6641b9bb54d36431e3c56c38133604051808381526020018273ffffffffffffffffffffffffffffffffffffffff1673ffffffffffffffffffffffffffffffffffffffff16815260200180602001828103825260178152602001807f546869732067616d652069736e74206f76657220796574000000000000000000815250602001935050505060405180910390a1611d39565b6000600260008381526020019081526020016000206007015490506000811115611caf576002600083815260200190815260200160002060050160009054906101000a900473ffffffffffffffffffffffffffffffffffffffff1673ffffffffffffffffffffffffffffffffffffffff163373ffffffffffffffffffffffffffffffffffffffff161415611c0557600060026000848152602001908152602001600020600701819055503373ffffffffffffffffffffffffffffffffffffffff166108fc829081150290604051600060405180830381858888f19350505050158015611b94573d6000803e3d6000fd5b507f255898c86cfbf62a32125aa6ad84b1687328b28c83569cd720d2d89453337f1a8233604051808381526020018273ffffffffffffffffffffffffffffffffffffffff1673ffffffffffffffffffffffffffffffffffffffff1681526020019250505060405180910390a1611caa565b7fd8ba5a086eb699dea1c1fac164bb49dd3e5e16d2d6641b9bb54d36431e3c56c38233604051808381526020018273ffffffffffffffffffffffffffffffffffffffff1673ffffffffffffffffffffffffffffffffffffffff168152602001806020018281038252601e8152602001807f5468697320706c61796572206861736e7420776f6e207468652067616d650000815250602001935050505060405180910390a15b611d37565b7fd8ba5a086eb699dea1c1fac164bb49dd3e5e16d2d6641b9bb54d36431e3c56c38233604051808381526020018273ffffffffffffffffffffffffffffffffffffffff1673ffffffffffffffffffffffffffffffffffffffff168152602001806020018281038252602b815260200180613e41602b9139604001935050505060405180910390a15b505b50565b60608060206040519080825280601f01601f191660200182016040528015611d735781602001600182028038833980820191505090505b509050600080905060008090505b6020811015611e1d5760008160080260020a8660001c0260001b9050600060f81b817effffffffffffffffffffffffffffffffffffffffffffffffffffffffffffff191614611e0f5780848481518110611dd757fe5b60200101907effffffffffffffffffffffffffffffffffffffffffffffffffffffffffffff1916908160001a90535082806001019350505b508080600101915050611d81565b506060816040519080825280601f01601f191660200182016040528015611e535781602001600182028038833980820191505090505b50905060008090505b82811015611ec357838181518110611e7057fe5b602001015160f81c60f81b828281518110611e8757fe5b60200101907effffffffffffffffffffffffffffffffffffffffffffffffffffffffffffff1916908160001a9053508080600101915050611e5c565b50809350505050919050565b847f30c126ddfd78b554590c8e0062ead3303c3d42fee51c3546f36f6daab83bc0a78133604051808381526020018273ffffffffffffffffffffffffffffffffffffffff1673ffffffffffffffffffffffffffffffffffffffff1681526020019250505060405180910390a16002600082815260200190815260200160002060000160009054906101000a900473ffffffffffffffffffffffffffffffffffffffff1673ffffffffffffffffffffffffffffffffffffffff163373ffffffffffffffffffffffffffffffffffffffff16148061200c57506002600082815260200190815260200160002060010160009054906101000a900473ffffffffffffffffffffffffffffffffffffffff1673ffffffffffffffffffffffffffffffffffffffff163373ffffffffffffffffffffffffffffffffffffffff16145b15612550578560017fb50b8c7887cd42a9ec052cf6f08c93c0987703edc4bb85236958ac3effb6aacd82826002600086815260200190815260200160002060050160149054906101000a900460ff166002600087815260200190815260200160002060050160149054906101000a900460ff16600381111561208a57fe5b85600381111561209657fe5b14604051808581526020018460038111156120ad57fe5b60ff1681526020018360038111156120c157fe5b60ff1681526020018215151515815260200194505050505060405180910390a16002600083815260200190815260200160002060050160149054906101000a900460ff16600381111561211057fe5b81600381111561211c57fe5b141561254d578560ff168760ff16148061213b57508360ff168560ff16145b61214457600080fd5b8560ff168760ff16108061215d57508360ff168560ff16105b61216657600080fd5b600a8760ff1610801561217d575060008760ff1610155b801561218c5750600a8660ff16105b801561219c575060008660ff1610155b80156121ab5750600a8560ff16105b80156121bb575060008560ff1610155b80156121ca5750600a8460ff16105b80156121da575060008460ff1610155b6121e357600080fd5b60008790505b8660ff168160ff16116122b95760008690505b8560ff168160ff16116122ab576000600260008c815260200190815260200160002060080160003373ffffffffffffffffffffffffffffffffffffffff1673ffffffffffffffffffffffffffffffffffffffff1681526020019081526020016000208360ff16600a811061226c57fe5b018260ff16600a811061227b57fe5b602091828204019190069054906101000a900460000b60000b1461229e57600080fd5b80806001019150506121fc565b5080806001019150506121e9565b506000600190508660ff168860ff1614156122e8576122df8560ff168760ff1603613c06565b8101905061230d565b8460ff168660ff16141561230c576123078760ff168960ff1603613c06565b810190505b5b600460009054906101000a900460ff1660ff168160ff16111580156123475750600460019054906101000a900460ff1660ff168160ff1610155b61235057600080fd5b600260008a815260200190815260200160002060090160003373ffffffffffffffffffffffffffffffffffffffff1673ffffffffffffffffffffffffffffffffffffffff168152602001908152602001600020600460019054906101000a900460ff16820360ff16600481106123c257fe5b602091828204019190069054906101000a900460ff16156123e257600080fd5b6001600260008b815260200190815260200160002060090160003373ffffffffffffffffffffffffffffffffffffffff1673ffffffffffffffffffffffffffffffffffffffff168152602001908152602001600020600460019054906101000a900460ff16830360ff166004811061245657fe5b602091828204019190066101000a81548160ff02191690831515021790555060008890505b8760ff168160ff161161254a5760008790505b8660ff168160ff161161253c5782600260008d815260200190815260200160002060080160003373ffffffffffffffffffffffffffffffffffffffff1673ffffffffffffffffffffffffffffffffffffffff1681526020019081526020016000208360ff16600a81106124fd57fe5b018260ff16600a811061250c57fe5b602091828204019190066101000a81548160ff021916908360000b60ff160217905550808060010191505061248e565b50808060010191505061247b565b50505b50505b505050505050565b600460019054906101000a900460ff1681565b60006002600085815260200190815260200160002060080160003373ffffffffffffffffffffffffffffffffffffffff1673ffffffffffffffffffffffffffffffffffffffff16815260200190815260200160002083600a81106125cb57fe5b0182600a81106125d757fe5b602091828204019190069054906101000a900460000b60000b90509392505050565b600460009054906101000a900460ff1681565b60016020528060005260406000206000915054906101000a900460ff1681565b6000801b61270f6000803373ffffffffffffffffffffffffffffffffffffffff1673ffffffffffffffffffffffffffffffffffffffff1681526020019081526020016000208054600181600116156101000203166002900480601f0160208091040260200160405190810160405280929190818152602001828054600181600116156101000203166002900480156127055780601f106126da57610100808354040283529160200191612705565b820191906000526020600020905b8154815290600101906020018083116126e857829003601f168201915b5050505050612cad565b14612be1578060007fb50b8c7887cd42a9ec052cf6f08c93c0987703edc4bb85236958ac3effb6aacd82826002600086815260200190815260200160002060050160149054906101000a900460ff166002600087815260200190815260200160002060050160149054906101000a900460ff16600381111561278d57fe5b85600381111561279957fe5b14604051808581526020018460038111156127b057fe5b60ff1681526020018360038111156127c457fe5b60ff1681526020018215151515815260200194505050505060405180910390a16002600083815260200190815260200160002060050160149054906101000a900460ff16600381111561281357fe5b81600381111561281f57fe5b1415612bde57600073ffffffffffffffffffffffffffffffffffffffff166002600085815260200190815260200160002060010160009054906101000a900473ffffffffffffffffffffffffffffffffffffffff1673ffffffffffffffffffffffffffffffffffffffff161461289457600080fd5b600260008481526020019081526020016000206006015434146128b657600080fd5b336002600085815260200190815260200160002060010160006101000a81548173ffffffffffffffffffffffffffffffffffffffff021916908373ffffffffffffffffffffffffffffffffffffffff1602179055506000803373ffffffffffffffffffffffffffffffffffffffff1673ffffffffffffffffffffffffffffffffffffffff16815260200190815260200160002060026000858152602001908152602001600020600301908054600181600116156101000203166002900461297e929190613cc3565b50600360003373ffffffffffffffffffffffffffffffffffffffff1673ffffffffffffffffffffffffffffffffffffffff168152602001908152602001600020839080600181540180825580915050906001820390600052602060002001600090919290919091505550600073ffffffffffffffffffffffffffffffffffffffff166002600085815260200190815260200160002060040160009054906101000a900473ffffffffffffffffffffffffffffffffffffffff1673ffffffffffffffffffffffffffffffffffffffff161415612aa957336002600085815260200190815260200160002060040160006101000a81548173ffffffffffffffffffffffffffffffffffffffff021916908373ffffffffffffffffffffffffffffffffffffffff1602179055505b612ab3833361392f565b7f719256502a190a7b4efbca7f56497055f1dccc51e2dca31d166dd41353fa21c28333604051808381526020018273ffffffffffffffffffffffffffffffffffffffff1673ffffffffffffffffffffffffffffffffffffffff1681526020019250505060405180910390a160016002600085815260200190815260200160002060050160146101000a81548160ff02191690836003811115612b5157fe5b02179055507fb4c24ba44adc7dd6a2c224259edcf26e548b1048e4b8193ee5c753d4feb33bb183600160405180838152602001826003811115612b9057fe5b60ff16815260200180602001828103825260098152602001807f53657474696e6755700000000000000000000000000000000000000000000000815250602001935050505060405180910390a15b50505b50565b601e81511115612bf357600080fd5b6000612bfe82612cad565b90506001600082815260200190815260200160002060009054906101000a900460ff1615612c2b57600080fd5b816000803373ffffffffffffffffffffffffffffffffffffffff1673ffffffffffffffffffffffffffffffffffffffff1681526020019081526020016000209080519060200190612c7d929190613d4a565b50600180600083815260200190815260200160002060006101000a81548160ff0219169083151502179055505050565b600060208201519050919050565b807f30c126ddfd78b554590c8e0062ead3303c3d42fee51c3546f36f6daab83bc0a78133604051808381526020018273ffffffffffffffffffffffffffffffffffffffff1673ffffffffffffffffffffffffffffffffffffffff1681526020019250505060405180910390a16002600082815260200190815260200160002060000160009054906101000a900473ffffffffffffffffffffffffffffffffffffffff1673ffffffffffffffffffffffffffffffffffffffff163373ffffffffffffffffffffffffffffffffffffffff161480612df857506002600082815260200190815260200160002060010160009054906101000a900473ffffffffffffffffffffffffffffffffffffffff1673ffffffffffffffffffffffffffffffffffffffff163373ffffffffffffffffffffffffffffffffffffffff16145b1561310c578160017fb50b8c7887cd42a9ec052cf6f08c93c0987703edc4bb85236958ac3effb6aacd82826002600086815260200190815260200160002060050160149054906101000a900460ff166002600087815260200190815260200160002060050160149054906101000a900460ff166003811115612e7657fe5b856003811115612e8257fe5b1460405180858152602001846003811115612e9957fe5b60ff168152602001836003811115612ead57fe5b60ff1681526020018215151515815260200194505050505060405180910390a16002600083815260200190815260200160002060050160149054906101000a900460ff166003811115612efc57fe5b816003811115612f0857fe5b14156131095760006001905060008090505b600460019054906101000a900460ff16600460009054906101000a900460ff160360ff168160ff16116130c5576002600087815260200190815260200160002060090160006002600089815260200190815260200160002060000160009054906101000a900473ffffffffffffffffffffffffffffffffffffffff1673ffffffffffffffffffffffffffffffffffffffff1673ffffffffffffffffffffffffffffffffffffffff1681526020019081526020016000208160ff1660048110612fde57fe5b602091828204019190069054906101000a900460ff1615806130aa57506002600087815260200190815260200160002060090160006002600089815260200190815260200160002060010160009054906101000a900473ffffffffffffffffffffffffffffffffffffffff1673ffffffffffffffffffffffffffffffffffffffff1673ffffffffffffffffffffffffffffffffffffffff1681526020019081526020016000208160ff166004811061309257fe5b602091828204019190069054906101000a900460ff16155b156130b857600091506130c5565b8080600101915050612f1a565b50806130d057600080fd5b600280600087815260200190815260200160002060050160146101000a81548160ff0219169083600381111561310257fe5b0217905550505b50505b5050565b807f30c126ddfd78b554590c8e0062ead3303c3d42fee51c3546f36f6daab83bc0a78133604051808381526020018273ffffffffffffffffffffffffffffffffffffffff1673ffffffffffffffffffffffffffffffffffffffff1681526020019250505060405180910390a16002600082815260200190815260200160002060000160009054906101000a900473ffffffffffffffffffffffffffffffffffffffff1673ffffffffffffffffffffffffffffffffffffffff163373ffffffffffffffffffffffffffffffffffffffff16148061324d57506002600082815260200190815260200160002060010160009054906101000a900473ffffffffffffffffffffffffffffffffffffffff1673ffffffffffffffffffffffffffffffffffffffff163373ffffffffffffffffffffffffffffffffffffffff16145b15613720578160027fb50b8c7887cd42a9ec052cf6f08c93c0987703edc4bb85236958ac3effb6aacd82826002600086815260200190815260200160002060050160149054906101000a900460ff166002600087815260200190815260200160002060050160149054906101000a900460ff1660038111156132cb57fe5b8560038111156132d757fe5b14604051808581526020018460038111156132ee57fe5b60ff16815260200183600381111561330257fe5b60ff1681526020018215151515815260200194505050505060405180910390a16002600083815260200190815260200160002060050160149054906101000a900460ff16600381111561335157fe5b81600381111561335d57fe5b141561371d577fe3ba00a8dded0a3010943716a9cd686d729f536fd0e8d41406c43591354b9d9a8433604051808381526020018273ffffffffffffffffffffffffffffffffffffffff1673ffffffffffffffffffffffffffffffffffffffff1681526020019250505060405180910390a160006133da8533613b1c565b905060008090506000600460019054906101000a900460ff1690505b600460009054906101000a900460ff1660ff168160ff161161342457808201915080806001019150506133f6565b5061342d613dca565b6002600088815260200190815260200160002060080160008473ffffffffffffffffffffffffffffffffffffffff1673ffffffffffffffffffffffffffffffffffffffff168152602001908152602001600020600a80602002604051908101604052809291906000905b8282101561351357838201600a806020026040519081016040528092919082600a80156134ff576020028201916000905b82829054906101000a900460000b60000b815260200190600101906020826000010492830192600103820291508084116134c85790505b505050505081526020019060010190613497565b505050509050600080905060008090505b600a81101561358a5760008090505b600a81101561357c5760008483600a811061354a57fe5b602002015182600a811061355a57fe5b602002015160000b121561356f576001830192505b8080600101915050613533565b508080600101915050613524565b508260ff168160ff1610613718576003600260008a815260200190815260200160002060050160146101000a81548160ff021916908360038111156135cb57fe5b02179055507fb4c24ba44adc7dd6a2c224259edcf26e548b1048e4b8193ee5c753d4feb33bb18860036040518083815260200182600381111561360a57fe5b60ff16815260200180602001828103825260088152602001807f46696e6973686564000000000000000000000000000000000000000000000000815250602001935050505060405180910390a133600260008a815260200190815260200160002060050160006101000a81548173ffffffffffffffffffffffffffffffffffffffff021916908373ffffffffffffffffffffffffffffffffffffffff1602179055507fa23e518eb8cf70d847192dfe67d27e1f9bc2e9963e43efa2fbb90acea1dbe3a28833604051808381526020018273ffffffffffffffffffffffffffffffffffffffff1673ffffffffffffffffffffffffffffffffffffffff1681526020019250505060405180910390a15b505050505b50505b5050565b60026020528060005260406000206000915090508060000160009054906101000a900473ffffffffffffffffffffffffffffffffffffffff16908060010160009054906101000a900473ffffffffffffffffffffffffffffffffffffffff1690806002018054600181600116156101000203166002900480601f01602080910402602001604051908101604052809291908181526020018280546001816001161561010002031660029004801561381c5780601f106137f15761010080835404028352916020019161381c565b820191906000526020600020905b8154815290600101906020018083116137ff57829003601f168201915b505050505090806003018054600181600116156101000203166002900480601f0160208091040260200160405190810160405280929190818152602001828054600181600116156101000203166002900480156138ba5780601f1061388f576101008083540402835291602001916138ba565b820191906000526020600020905b81548152906001019060200180831161389d57829003601f168201915b5050505050908060040160009054906101000a900473ffffffffffffffffffffffffffffffffffffffff16908060050160009054906101000a900473ffffffffffffffffffffffffffffffffffffffff16908060050160149054906101000a900460ff16908060060154908060070154905089565b8160007fb50b8c7887cd42a9ec052cf6f08c93c0987703edc4bb85236958ac3effb6aacd82826002600086815260200190815260200160002060050160149054906101000a900460ff166002600087815260200190815260200160002060050160149054906101000a900460ff1660038111156139a857fe5b8560038111156139b457fe5b14604051808581526020018460038111156139cb57fe5b60ff1681526020018360038111156139df57fe5b60ff1681526020018215151515815260200194505050505060405180910390a16002600083815260200190815260200160002060050160149054906101000a900460ff166003811115613a2e57fe5b816003811115613a3a57fe5b1415613b165760008090505b600a8160ff161015613b145760008090505b600a8160ff161015613b065760006002600088815260200190815260200160002060080160008773ffffffffffffffffffffffffffffffffffffffff1673ffffffffffffffffffffffffffffffffffffffff1681526020019081526020016000208360ff16600a8110613ac757fe5b018260ff16600a8110613ad657fe5b602091828204019190066101000a81548160ff021916908360000b60ff1602179055508080600101915050613a58565b508080600101915050613a46565b505b50505050565b60006002600084815260200190815260200160002060000160009054906101000a900473ffffffffffffffffffffffffffffffffffffffff1673ffffffffffffffffffffffffffffffffffffffff168273ffffffffffffffffffffffffffffffffffffffff161415613bc6576002600084815260200190815260200160002060010160009054906101000a900473ffffffffffffffffffffffffffffffffffffffff169050613c00565b6002600084815260200190815260200160002060000160009054906101000a900473ffffffffffffffffffffffffffffffffffffffff1690505b92915050565b600080821215613c3a57817fffffffffffffffffffffffffffffffffffffffffffffffffffffffffffffffff029050613c3e565b8190505b919050565b828054600181600116156101000203166002900490600052602060002090601f016020900481019282601f10613c8457805160ff1916838001178555613cb2565b82800160010185558215613cb2579182015b82811115613cb1578251825591602001919060010190613c96565b5b509050613cbf9190613df8565b5090565b828054600181600116156101000203166002900490600052602060002090601f016020900481019282601f10613cfc5780548555613d39565b82800160010185558215613d3957600052602060002091601f016020900482015b82811115613d38578254825591600101919060010190613d1d565b5b509050613d469190613df8565b5090565b828054600181600116156101000203166002900490600052602060002090601f016020900481019282601f10613d8b57805160ff1916838001178555613db9565b82800160010185558215613db9579182015b82811115613db8578251825591602001919060010190613d9d565b5b509050613dc69190613df8565b5090565b60405180610c800160405280600a905b613de2613e1d565b815260200190600190039081613dda5790505090565b613e1a91905b80821115613e16576000816000905550600101613dfe565b5090565b90565b604051806101400160405280600a9060208202803883398082019150509050509056fe4e6f206d6f72652066756e647320696e2074686520636f6e747261637420666f7220746869732067616d65a165627a7a7230582077d8c11422f16eafb527bd03e7c8d6e443c37089ec15cd4bf8fb831ec1a63b110029",
  "source": "pragma solidity >= 0.5.0;\n\ncontract battleship {\n\n    enum GameState { Created, SettingUp, Playing, Finished }\n\n    struct Game {\n        address payable player1;\n        address payable player2;\n        string player1Name;\n        string player2Name;\n        address currentPlayer;\n        address payable winner;\n        GameState gameState;\n        uint pot;\n        uint availablePot;\n        mapping(address => int8[10][10]) playerGrids;\n        mapping(address => bool[4]) playerShips;\n    }\n\n    mapping(address => string) public playerNames;\n    mapping(bytes32 => bool) public playerNameExists;\n    mapping(bytes32 => Game) public games;\n    mapping(address => bytes32[]) public playerGames;\n\n    uint8 public maxlen = 5;\n    uint8 public minlen = 2;\n\n    int8[10][10] otherPlayerBoard;\n\n    event PlayerSetName(address player, string name);\n    event GameInitialized(bytes32 gameId, address player1, bool player1GoesFirst, uint pot);\n    event GameJoined(bytes32 gameId, address player2);\n    event ShipPlaced(bytes32 gameId, address player, uint8 startX, uint8 endX, uint8 startY, uint8 endY);\n    event StateChanged(bytes32 gameId, GameState newState, string newStateString);\n\n    event MadeMove(bytes32 gameId, address currentPlayer, uint8 x, uint8 y);\n    event HitBattleShip(bytes32 gameId, address currentPlayer, uint8 x, uint8 y, int8 pieceHit);\n    event WonChallenged(bytes32 gameId, address player);\n    event GameEnded(bytes32 gameId, address winner);\n    \n    event WinningsWithdrawn(bytes32 gameId, address player);\n    event WithdrawFailed(bytes32 gameId, address player, string reason);\n\n    event IsStateCalled(bytes32 gameId, GameState currentState, GameState comparingState, bool equal);\n    event IsPlayerCalled(bytes32 gameId, address player);\n    event LogCurrentState(bytes32 gameId, GameState state);\n\n    function stringToBytes32(string memory source) pure public returns (bytes32 result) {\n        assembly {\n            result := mload(add(source, 32))\n        }\n    }\n\n    modifier hasName() {\n        if(stringToBytes32(playerNames[msg.sender]) != bytes32(0x0)) _;\n    }\n\n    modifier isPlayer(bytes32 gameId) {\n        emit IsPlayerCalled(gameId,msg.sender);\n\n        if(msg.sender == games[gameId].player1 || msg.sender == games[gameId].player2) _;\n    }\n\n    modifier isCurrentPlayer(bytes32 gameId) {\n        if(msg.sender == games[gameId].currentPlayer) _;\n    }\n\n    modifier isState(bytes32 gameId, GameState state){\n        emit IsStateCalled(gameId,state, games[gameId].gameState, state == games[gameId].gameState);\n        if(state == games[gameId].gameState) _;\n    }\n\n    function abs(int number) internal pure returns(uint unumber) {\n        if(number < 0) return uint(-1 * number);\n        return uint(number);\n    }\n    function withdraw(bytes32 gameId) public payable{\n        if(games[gameId].gameState != GameState.Finished){\n            emit WithdrawFailed(gameId,msg.sender,'This game isnt over yet');\n        }\n        else\n        {\n            uint amount = games[gameId].availablePot;\n            if(amount > 0){\n                if(msg.sender == games[gameId].winner){\n                    games[gameId].availablePot = 0;\n                    msg.sender.transfer(amount);\n                    emit WinningsWithdrawn(gameId, msg.sender);\n                }else{\n                    emit WithdrawFailed(gameId,msg.sender,'This player hasnt won the game');\n                }\n            }else{\n                emit WithdrawFailed(gameId,msg.sender,'No more funds in the contract for this game');\n            }\n        }\n\n    }\n    function initialiseBoard(bytes32 gameId, address player) isState(gameId, GameState.Created) internal {\n        for(uint8 i = 0; i < 10; i++) {\n            for(uint8 j = 0; j < 10; j++) {\n                games[gameId].playerGrids[player][i][j] = 0;\n            }\n        }\n    }\n    \n    function findOtherPlayer(bytes32 gameId,address player) internal view returns(address) {\n        if(player == games[gameId].player1) return games[gameId].player2;\n        return games[gameId].player1;\n    }\n\n    function setName(string memory name ) public{\n        require(bytes(name).length <= 30);\n        bytes32 bytesname = stringToBytes32(name);\n        require(!playerNameExists[bytesname]);\n        playerNames[msg.sender] = name;\n        playerNameExists[bytesname] = true;\n    }\n\n    function findPot(bytes32 gameId) view public returns(uint){\n        return games[gameId].pot;\n    }\n    function bytes32ToString(bytes32 x) public view returns (string memory) {\n    bytes memory bytesString = new bytes(32);\n    uint charCount = 0;\n    for (uint j = 0; j < 32; j++) {\n        byte char = byte(bytes32(uint(x) * 2 ** (8 * j)));\n        if (char != 0) {\n            bytesString[charCount] = char;\n            charCount++;\n        }\n    }\n    bytes memory bytesStringTrimmed = new bytes(charCount);\n    for (uint j = 0; j < charCount; j++) {\n        bytesStringTrimmed[j] = bytesString[j];\n    }\n    return string(bytesStringTrimmed);\n}\n    function returngameid() public view returns(string memory){\n        return bytes32ToString(playerGames[msg.sender][0]);\n    }\n    function newGame(bool goFirst) hasName public payable returns(bytes32){\n        require(msg.value > 0);\n        // bytes32 gameId = keccak256(msg.sender, block.number);\n        bytes32 gameId = keccak256(abi.encodePacked(msg.sender, block.number));\n        playerGames[msg.sender].push(gameId);\n        games[gameId] = Game(\n            msg.sender, // address player1;\n            address(0), // address player2;\n            playerNames[msg.sender], //     string player1Name;\n            \"\",  // string player2Name;\n            address(0), // address currentPlayer;\n            address(0), // address winner;\n            GameState.Created, // GameState gameState;\n            msg.value,    // uint pot;\n            msg.value    // uint availablePot;\n        );\n        if(goFirst){\n            games[gameId].currentPlayer = msg.sender;\n        }\n        initialiseBoard(gameId,msg.sender);\n        return gameId;\n    }\n\n    function joinGame(bytes32 gameId) hasName public isState(gameId, GameState.Created) payable {\n        require(games[gameId].player2 == address(0));\n        require(msg.value == games[gameId].pot);\n        games[gameId].player2 = msg.sender;\n        games[gameId].player2Name = playerNames[msg.sender];\n        playerGames[msg.sender].push(gameId);\n        if(games[gameId].currentPlayer == address(0)){\n            games[gameId].currentPlayer = msg.sender;\n        }\n        initialiseBoard(gameId,msg.sender);\n        emit GameJoined(gameId,msg.sender);\n        games[gameId].gameState = GameState.SettingUp;\n        emit StateChanged(gameId,GameState.SettingUp,\"SettingUp\");\n    }\n    function showBoard(bytes32 gameId, uint x, uint y) public view returns(int){\n        return games[gameId].playerGrids[msg.sender][x][y]; \n    }\n    function showOtherPlayerBoard(bytes32 gameId, uint x, uint y) isPlayer(gameId) public returns(int){\n        require(games[gameId].gameState == GameState.Playing || games[gameId].gameState == GameState.Finished);\n        address otherPlayer = findOtherPlayer(gameId, msg.sender);\n        return  games[gameId].playerGrids[otherPlayer][x][y];\n    }\n\n    function placeShip(bytes32 gameId, uint8 startX, uint8 endX, uint8 startY, uint8 endY) isPlayer(gameId) public isState(gameId,GameState.SettingUp) {\n        \n        require(startX == endX || startY == endY);\n        require(startX < endX || startY < endY);\n        require(startX  < 10 && startX  >= 0 &&\n                endX    < 10 && endX    >= 0 &&\n                startY  < 10 && startY  >= 0 &&\n                endY    < 10 && endY    >= 0);\n        for(uint8 x = startX; x <= endX; x++) \n        {\n            for(uint8 y = startY; y <= endY; y++) \n            {\n                require(games[gameId].playerGrids[msg.sender][x][y] == 0);\n            }   \n        }\n        uint8 boatLength = 1;\n        if(startX == endX) \n        {\n            boatLength += uint8(abs(int(startY)-int(endY)));\n        }\n        else if(startY == endY) \n        {\n            boatLength += uint8(abs(int(startX)-int(endX)));\n        }\n\n        require(boatLength <= maxlen && boatLength >= minlen);\n        require(!(games[gameId].playerShips[msg.sender][boatLength-minlen]));\n\n        games[gameId].playerShips[msg.sender][boatLength - minlen] = true;\n\n        for(uint8 x = startX; x <= endX; x++) \n        {\n            for( uint8 y = startY; y <= endY; y++) \n            {\n                games[gameId].playerGrids[msg.sender][x][y] = int8(boatLength);\n            }   \n        }\n    }\n\n    function finishPlacing(bytes32 gameId) isPlayer(gameId) public isState(gameId,GameState.SettingUp) {\n        bool ready = true;\n        for(uint8 i = 0; i <= maxlen - minlen; i++) \n        {\n            if(!games[gameId].playerShips[games[gameId].player1][i] || !games[gameId].playerShips[games[gameId].player2][i]) \n            {\n                ready = false;\n                break;\n            }\n        }\n        require(ready);\n        games[gameId].gameState = GameState.Playing;\n    }\n\n    function makeMove(bytes32 gameId, uint8 x, uint8 y) public isState(gameId,GameState.Playing) isCurrentPlayer(gameId) {\n        address otherPlayer = findOtherPlayer(gameId, msg.sender);\n        require(games[gameId].playerGrids[otherPlayer][x][y] >= 0);\n        if(games[gameId].playerGrids[otherPlayer][x][y] >= 1 && games[gameId].playerGrids[otherPlayer][x][y] <= int(maxlen))\n        {\n            games[gameId].playerGrids[otherPlayer][x][y] = -1 * games[gameId].playerGrids[otherPlayer][x][y];\n        }\n        else\n        {\n            games[gameId].playerGrids[otherPlayer][x][y] = 100;\n        }\n\n        games[gameId].currentPlayer = otherPlayer;\n    }\n\n    function sayWon(bytes32 gameId) isPlayer(gameId) isState(gameId,GameState.Playing) public\n    {\n        emit WonChallenged(gameId,msg.sender);\n        address otherPlayer = findOtherPlayer(gameId,msg.sender);\n        uint8 requiredToWin = 0;\n        for(uint8 i = minlen; i <= maxlen; i++){\n            requiredToWin += i;\n        }\n        int8[10][10] memory otherPlayerGrid = games[gameId].playerGrids[otherPlayer];\n        uint8 numberHit = 0;\n        for(uint i = 0;  i < 10; i++) {\n            for(uint j = 0;  j < 10; j++) {\n                if(otherPlayerGrid[i][j] < 0){\n                    numberHit += 1;\n                }\n            }    \n        }\n        if(numberHit >= requiredToWin){\n            games[gameId].gameState = GameState.Finished;\n            emit StateChanged(gameId,GameState.Finished,\"Finished\");\n            games[gameId].winner = msg.sender;\n            emit GameEnded(gameId,msg.sender);\n        }    \n    }\n\n\n\n    // function () public {\n    //     revert(\"accidental sending\"); // Prevents accidental sending of ether\n    // }\n\n}\n",
  "sourcePath": "/home/pragun/pragun/sem5/blockchain/Assgn/a2/Battleship-dAPP/contracts/battleship.sol",
  "compiler": {
    "name": "solc",
    "version": "0.5.8+commit.23d335f2.Emscripten.clang"
  },
  "schemaVersion": "3.0.15",
  "updatedAt": "2019-11-10T21:20:52.740Z",
  "devdoc": {
    "methods": {}
  },
  "userdoc": {
    "methods": {}
  }
}